{
  "contractName": "SubWallet",
  "abi": [
    {
      "inputs": [],
      "stateMutability": "nonpayable",
      "type": "constructor"
    },
    {
      "anonymous": false,
      "inputs": [
        {
          "indexed": false,
          "internalType": "address",
          "name": "",
          "type": "address"
        },
        {
          "indexed": false,
          "internalType": "address",
          "name": "",
          "type": "address"
        },
        {
          "indexed": false,
          "internalType": "uint256",
          "name": "",
          "type": "uint256"
        }
      ],
      "name": "Deposit",
      "type": "event"
    },
    {
      "anonymous": false,
      "inputs": [
        {
          "indexed": false,
          "internalType": "address",
          "name": "",
          "type": "address"
        },
        {
          "indexed": false,
          "internalType": "uint256",
          "name": "",
          "type": "uint256"
        }
      ],
      "name": "Receive",
      "type": "event"
    },
    {
      "anonymous": false,
      "inputs": [
        {
          "indexed": false,
          "internalType": "address",
          "name": "",
          "type": "address"
        },
        {
          "indexed": false,
          "internalType": "uint256",
          "name": "",
          "type": "uint256"
        }
      ],
      "name": "Withdraw",
      "type": "event"
    },
    {
      "inputs": [],
      "name": "balance",
      "outputs": [
        {
          "internalType": "uint256",
          "name": "",
          "type": "uint256"
        }
      ],
      "stateMutability": "view",
      "type": "function"
    },
    {
      "stateMutability": "payable",
      "type": "receive"
    },
    {
      "inputs": [
        {
          "internalType": "address",
          "name": "_initOwner",
          "type": "address"
        }
      ],
      "name": "initialize",
      "outputs": [],
      "stateMutability": "nonpayable",
      "type": "function"
    },
    {
      "inputs": [
        {
          "internalType": "address",
          "name": "_token",
          "type": "address"
        },
        {
          "internalType": "uint16",
          "name": "_mode",
          "type": "uint16"
        },
        {
          "internalType": "uint256",
          "name": "_amount",
          "type": "uint256"
        }
      ],
      "name": "approveEth",
      "outputs": [],
      "stateMutability": "nonpayable",
      "type": "function"
    },
    {
      "inputs": [
        {
          "internalType": "address",
          "name": "_token",
          "type": "address"
        },
        {
          "internalType": "uint16",
          "name": "_mode",
          "type": "uint16"
        },
        {
          "internalType": "uint256",
          "name": "_amount",
          "type": "uint256"
        }
      ],
      "name": "approveTo",
      "outputs": [],
      "stateMutability": "nonpayable",
      "type": "function"
    },
    {
      "inputs": [
        {
          "internalType": "address[]",
          "name": "_tokens",
          "type": "address[]"
        },
        {
          "internalType": "uint256",
          "name": "_amount",
          "type": "uint256"
        },
        {
          "internalType": "uint256",
          "name": "_ethAmount",
          "type": "uint256"
        }
      ],
      "name": "multiApproveTokens",
      "outputs": [],
      "stateMutability": "nonpayable",
      "type": "function"
    },
    {
      "inputs": [
        {
          "internalType": "address[]",
          "name": "_tokens",
          "type": "address[]"
        },
        {
          "internalType": "uint256",
          "name": "_amount",
          "type": "uint256"
        },
        {
          "internalType": "uint256",
          "name": "_ethAmount",
          "type": "uint256"
        }
      ],
      "name": "multiApproveEth",
      "outputs": [],
      "stateMutability": "nonpayable",
      "type": "function"
    },
    {
      "inputs": [
        {
          "internalType": "address",
          "name": "_token",
          "type": "address"
        },
        {
          "internalType": "uint256",
          "name": "_amount",
          "type": "uint256"
        }
      ],
      "name": "depositToken",
      "outputs": [],
      "stateMutability": "nonpayable",
      "type": "function"
    },
    {
      "inputs": [
        {
          "internalType": "address",
          "name": "_token",
          "type": "address"
        },
        {
          "internalType": "uint256",
          "name": "_amount",
          "type": "uint256"
        }
      ],
      "name": "withdrawToken",
      "outputs": [],
      "stateMutability": "nonpayable",
      "type": "function"
    },
    {
      "inputs": [
        {
          "internalType": "address",
          "name": "_collateralToken",
          "type": "address"
        },
        {
          "internalType": "uint256",
          "name": "_collateralAmount",
          "type": "uint256"
        },
        {
          "internalType": "uint256",
          "name": "_ethAmount",
          "type": "uint256"
        }
      ],
      "name": "shortStartETH",
      "outputs": [],
      "stateMutability": "nonpayable",
      "type": "function"
    },
    {
      "inputs": [
        {
          "internalType": "address",
          "name": "_collateralToken",
          "type": "address"
        },
        {
          "internalType": "uint256",
          "name": "_collateralAmount",
          "type": "uint256"
        },
        {
          "internalType": "address",
          "name": "_shortToken",
          "type": "address"
        },
        {
          "internalType": "uint256",
          "name": "_shortAmount",
          "type": "uint256"
        }
      ],
      "name": "shortStart",
      "outputs": [],
      "stateMutability": "nonpayable",
      "type": "function"
    },
    {
      "inputs": [],
      "name": "shortEndEth",
      "outputs": [],
      "stateMutability": "nonpayable",
      "type": "function"
    },
    {
      "inputs": [
        {
          "internalType": "address",
          "name": "_token",
          "type": "address"
        }
      ],
      "name": "getCollateral",
      "outputs": [
        {
          "internalType": "uint256",
          "name": "",
          "type": "uint256"
        }
      ],
      "stateMutability": "view",
      "type": "function"
    },
    {
      "inputs": [
        {
          "internalType": "address",
          "name": "_token",
          "type": "address"
        }
      ],
      "name": "getShort",
      "outputs": [
        {
          "internalType": "address",
          "name": "",
          "type": "address"
        },
        {
          "internalType": "uint256",
          "name": "",
          "type": "uint256"
        },
        {
          "internalType": "uint256",
          "name": "",
          "type": "uint256"
        }
      ],
      "stateMutability": "view",
      "type": "function"
    }
  ],
  "bytecode": "0x608060405234801561001057600080fd5b506001600060146101000a81548160ff0219169083151502179055506142e18061003b6000396000f3fe6080604052600436106100c65760003560e01c80639e281a981161007f578063b600749911610059578063b600749914610294578063b69ef8a8146102bd578063be241896146102e8578063c4d66de81461031157610106565b80639e281a981461022b578063a436071114610254578063b32242301461027d57610106565b8063178184891461010b5780631be13d3b14610134578063338b5dea1461015d57806346a8aa9114610186578063685b034e146101af5780639b56d6c9146101ee57610106565b36610106577fd6717f327e0cb88b4a97a7f67a453e9258252c34937ccbdd86de7cb840e7def333346040516100fc9291906130d8565b60405180910390a1005b600080fd5b34801561011757600080fd5b50610132600480360381019061012d91906132c6565b61033a565b005b34801561014057600080fd5b5061015b6004803603810190610156919061336f565b6107d1565b005b34801561016957600080fd5b50610184600480360381019061017f91906133c2565b610aeb565b005b34801561019257600080fd5b506101ad60048036038101906101a891906132c6565b610c54565b005b3480156101bb57600080fd5b506101d660048036038101906101d19190613402565b611357565b6040516101e59392919061342f565b60405180910390f35b3480156101fa57600080fd5b5061021560048036038101906102109190613402565b611430565b6040516102229190613466565b60405180910390f35b34801561023757600080fd5b50610252600480360381019061024d91906133c2565b611479565b005b34801561026057600080fd5b5061027b60048036038101906102769190613481565b61169a565b005b34801561028957600080fd5b50610292611ae4565b005b3480156102a057600080fd5b506102bb60048036038101906102b6919061336f565b61203f565b005b3480156102c957600080fd5b506102d2612359565b6040516102df9190613466565b60405180910390f35b3480156102f457600080fd5b5061030f600480360381019061030a91906134d4565b61235f565b005b34801561031d57600080fd5b5061033860048036038101906103339190613402565b6123f5565b005b600160009054906101000a900473ffffffffffffffffffffffffffffffffffffffff1673ffffffffffffffffffffffffffffffffffffffff163373ffffffffffffffffffffffffffffffffffffffff16146103ca576040517f08c379a00000000000000000000000000000000000000000000000000000000081526004016103c190613598565b60405180910390fd5b60008060009054906101000a900473ffffffffffffffffffffffffffffffffffffffff1673ffffffffffffffffffffffffffffffffffffffff1663c8e1b0626040518163ffffffff1660e01b8152600401602060405180830381865afa158015610438573d6000803e3d6000fd5b505050506040513d601f19601f8201168201806040525081019061045c91906135cd565b905060008060009054906101000a900473ffffffffffffffffffffffffffffffffffffffff1673ffffffffffffffffffffffffffffffffffffffff166313561b556040518163ffffffff1660e01b8152600401602060405180830381865afa1580156104cc573d6000803e3d6000fd5b505050506040513d601f19601f820116820180604052508101906104f091906135cd565b905060005b85518110156107c9576000868281518110610513576105126135fa565b5b602002602001015173ffffffffffffffffffffffffffffffffffffffff166201388085886040516024016105489291906130d8565b6040516020818303038152906040527f095ea7b3000000000000000000000000000000000000000000000000000000007bffffffffffffffffffffffffffffffffffffffffffffffffffffffff19166020820180517bffffffffffffffffffffffffffffffffffffffffffffffffffffffff83818316178352505050506040516105d291906136a3565b60006040518083038160008787f1925050503d8060008114610610576040519150601f19603f3d011682016040523d82523d6000602084013e610615565b606091505b5050905080610659576040517f08c379a000000000000000000000000000000000000000000000000000000000815260040161065090613706565b60405180910390fd5b600087838151811061066e5761066d6135fa565b5b602002602001015173ffffffffffffffffffffffffffffffffffffffff166201388085896040516024016106a39291906130d8565b6040516020818303038152906040527f095ea7b3000000000000000000000000000000000000000000000000000000007bffffffffffffffffffffffffffffffffffffffffffffffffffffffff19166020820180517bffffffffffffffffffffffffffffffffffffffffffffffffffffffff838183161783525050505060405161072d91906136a3565b60006040518083038160008787f1925050503d806000811461076b576040519150601f19603f3d011682016040523d82523d6000602084013e610770565b606091505b50509050806107b4576040517f08c379a00000000000000000000000000000000000000000000000000000000081526004016107ab90613772565b60405180910390fd5b505080806107c1906137c1565b9150506104f5565b505050505050565b600160009054906101000a900473ffffffffffffffffffffffffffffffffffffffff1673ffffffffffffffffffffffffffffffffffffffff163373ffffffffffffffffffffffffffffffffffffffff1614610861576040517f08c379a000000000000000000000000000000000000000000000000000000000815260040161085890613598565b60405180910390fd5b6000808361ffff16036109045760008054906101000a900473ffffffffffffffffffffffffffffffffffffffff1673ffffffffffffffffffffffffffffffffffffffff166313561b556040518163ffffffff1660e01b8152600401602060405180830381865afa1580156108d9573d6000803e3d6000fd5b505050506040513d601f19601f820116820180604052508101906108fd91906135cd565b90506109a3565b60018361ffff16036109a25760008054906101000a900473ffffffffffffffffffffffffffffffffffffffff1673ffffffffffffffffffffffffffffffffffffffff1663c8e1b0626040518163ffffffff1660e01b8152600401602060405180830381865afa15801561097b573d6000803e3d6000fd5b505050506040513d601f19601f8201168201806040525081019061099f91906135cd565b90505b5b60008473ffffffffffffffffffffffffffffffffffffffff1662030d4083856040516024016109d39291906130d8565b6040516020818303038152906040527f095ea7b3000000000000000000000000000000000000000000000000000000007bffffffffffffffffffffffffffffffffffffffffffffffffffffffff19166020820180517bffffffffffffffffffffffffffffffffffffffffffffffffffffffff8381831617835250505050604051610a5d91906136a3565b60006040518083038160008787f1925050503d8060008114610a9b576040519150601f19603f3d011682016040523d82523d6000602084013e610aa0565b606091505b5050905080610ae4576040517f08c379a0000000000000000000000000000000000000000000000000000000008152600401610adb90613855565b60405180910390fd5b5050505050565b600160009054906101000a900473ffffffffffffffffffffffffffffffffffffffff1673ffffffffffffffffffffffffffffffffffffffff163373ffffffffffffffffffffffffffffffffffffffff1614610b7b576040517f08c379a0000000000000000000000000000000000000000000000000000000008152600401610b7290613598565b60405180910390fd5b8173ffffffffffffffffffffffffffffffffffffffff166323b872dd3330846040518463ffffffff1660e01b8152600401610bb893929190613875565b6020604051808303816000875af1158015610bd7573d6000803e3d6000fd5b505050506040513d601f19601f82011682018060405250810190610bfb91906138e4565b508060026000828254610c0e9190613911565b925050819055507f5548c837ab068cf56a2c2479df0882a4922fd203edb7517321831d95078c5f62823383604051610c4893929190613875565b60405180910390a15050565b600160009054906101000a900473ffffffffffffffffffffffffffffffffffffffff1673ffffffffffffffffffffffffffffffffffffffff163373ffffffffffffffffffffffffffffffffffffffff1614610ce4576040517f08c379a0000000000000000000000000000000000000000000000000000000008152600401610cdb90613598565b60405180910390fd5b60008060009054906101000a900473ffffffffffffffffffffffffffffffffffffffff1673ffffffffffffffffffffffffffffffffffffffff1663c8e1b0626040518163ffffffff1660e01b8152600401602060405180830381865afa158015610d52573d6000803e3d6000fd5b505050506040513d601f19601f82011682018060405250810190610d7691906135cd565b905060008060009054906101000a900473ffffffffffffffffffffffffffffffffffffffff1673ffffffffffffffffffffffffffffffffffffffff166313561b556040518163ffffffff1660e01b8152600401602060405180830381865afa158015610de6573d6000803e3d6000fd5b505050506040513d601f19601f82011682018060405250810190610e0a91906135cd565b905060008060009054906101000a900473ffffffffffffffffffffffffffffffffffffffff1673ffffffffffffffffffffffffffffffffffffffff1663f63c13a46040518163ffffffff1660e01b8152600401602060405180830381865afa158015610e7a573d6000803e3d6000fd5b505050506040513d601f19601f82011682018060405250810190610e9e91906135cd565b905060008060009054906101000a900473ffffffffffffffffffffffffffffffffffffffff1673ffffffffffffffffffffffffffffffffffffffff166349585ec26040518163ffffffff1660e01b8152600401602060405180830381865afa158015610f0e573d6000803e3d6000fd5b505050506040513d601f19601f82011682018060405250810190610f3291906135cd565b905060005b875181101561120b576000888281518110610f5557610f546135fa565b5b602002602001015173ffffffffffffffffffffffffffffffffffffffff1662013880878a604051602401610f8a9291906130d8565b6040516020818303038152906040527f095ea7b3000000000000000000000000000000000000000000000000000000007bffffffffffffffffffffffffffffffffffffffffffffffffffffffff19166020820180517bffffffffffffffffffffffffffffffffffffffffffffffffffffffff838183161783525050505060405161101491906136a3565b60006040518083038160008787f1925050503d8060008114611052576040519150601f19603f3d011682016040523d82523d6000602084013e611057565b606091505b505090508061109b576040517f08c379a000000000000000000000000000000000000000000000000000000000815260040161109290613706565b60405180910390fd5b60008983815181106110b0576110af6135fa565b5b602002602001015173ffffffffffffffffffffffffffffffffffffffff1662013880878b6040516024016110e59291906130d8565b6040516020818303038152906040527f095ea7b3000000000000000000000000000000000000000000000000000000007bffffffffffffffffffffffffffffffffffffffffffffffffffffffff19166020820180517bffffffffffffffffffffffffffffffffffffffffffffffffffffffff838183161783525050505060405161116f91906136a3565b60006040518083038160008787f1925050503d80600081146111ad576040519150601f19603f3d011682016040523d82523d6000602084013e6111b2565b606091505b50509050806111f6576040517f08c379a00000000000000000000000000000000000000000000000000000000081526004016111ed90613772565b60405180910390fd5b50508080611203906137c1565b915050610f37565b5060008273ffffffffffffffffffffffffffffffffffffffff1662013880838860405160240161123c9291906130d8565b6040516020818303038152906040527fc04a8a10000000000000000000000000000000000000000000000000000000007bffffffffffffffffffffffffffffffffffffffffffffffffffffffff19166020820180517bffffffffffffffffffffffffffffffffffffffffffffffffffffffff83818316178352505050506040516112c691906136a3565b60006040518083038160008787f1925050503d8060008114611304576040519150601f19603f3d011682016040523d82523d6000602084013e611309565b606091505b505090508061134d576040517f08c379a0000000000000000000000000000000000000000000000000000000008152600401611344906139b3565b60405180910390fd5b5050505050505050565b600080600080600460008673ffffffffffffffffffffffffffffffffffffffff1673ffffffffffffffffffffffffffffffffffffffff1681526020019081526020016000206040518060600160405290816000820160009054906101000a900473ffffffffffffffffffffffffffffffffffffffff1673ffffffffffffffffffffffffffffffffffffffff1673ffffffffffffffffffffffffffffffffffffffff168152602001600182015481526020016002820154815250509050806000015181602001518260400151935093509350509193909250565b6000600360008373ffffffffffffffffffffffffffffffffffffffff1673ffffffffffffffffffffffffffffffffffffffff168152602001908152602001600020549050919050565b600160009054906101000a900473ffffffffffffffffffffffffffffffffffffffff1673ffffffffffffffffffffffffffffffffffffffff163373ffffffffffffffffffffffffffffffffffffffff1614611509576040517f08c379a000000000000000000000000000000000000000000000000000000000815260040161150090613598565b60405180910390fd5b808273ffffffffffffffffffffffffffffffffffffffff166370a08231306040518263ffffffff1660e01b815260040161154391906139d3565b602060405180830381865afa158015611560573d6000803e3d6000fd5b505050506040513d601f19601f820116820180604052508101906115849190613a03565b10156115c5576040517f08c379a00000000000000000000000000000000000000000000000000000000081526004016115bc90613a7c565b60405180910390fd5b8173ffffffffffffffffffffffffffffffffffffffff1663a9059cbb33836040518363ffffffff1660e01b81526004016116009291906130d8565b6020604051808303816000875af115801561161f573d6000803e3d6000fd5b505050506040513d601f19601f8201168201806040525081019061164391906138e4565b5080600260008282546116569190613a9c565b925050819055507f884edad9ce6fa2440d8a54cc123490eb96d2768479d49ff9c7366125a9424364828260405161168e9291906130d8565b60405180910390a15050565b600160009054906101000a900473ffffffffffffffffffffffffffffffffffffffff1673ffffffffffffffffffffffffffffffffffffffff163373ffffffffffffffffffffffffffffffffffffffff161461172a576040517f08c379a000000000000000000000000000000000000000000000000000000000815260040161172190613598565b60405180910390fd5b60008060009054906101000a900473ffffffffffffffffffffffffffffffffffffffff1673ffffffffffffffffffffffffffffffffffffffff166313561b556040518163ffffffff1660e01b8152600401602060405180830381865afa158015611798573d6000803e3d6000fd5b505050506040513d601f19601f820116820180604052508101906117bc91906135cd565b905060006117cb828686612568565b90508061180d576040517f08c379a000000000000000000000000000000000000000000000000000000000815260040161180490613b1c565b60405180910390fd5b83600360008773ffffffffffffffffffffffffffffffffffffffff1673ffffffffffffffffffffffffffffffffffffffff1681526020019081526020016000208190555060008060009054906101000a900473ffffffffffffffffffffffffffffffffffffffff1673ffffffffffffffffffffffffffffffffffffffff166349585ec26040518163ffffffff1660e01b8152600401602060405180830381865afa1580156118bf573d6000803e3d6000fd5b505050506040513d601f19601f820116820180604052508101906118e391906135cd565b905060006118f28285876125ee565b905080611934576040517f08c379a000000000000000000000000000000000000000000000000000000000815260040161192b90613b88565b60405180910390fd5b60008060009054906101000a900473ffffffffffffffffffffffffffffffffffffffff1673ffffffffffffffffffffffffffffffffffffffff1663c8e1b0626040518163ffffffff1660e01b8152600401602060405180830381865afa1580156119a2573d6000803e3d6000fd5b505050506040513d601f19601f820116820180604052508101906119c691906135cd565b905060006119d5828a89612675565b6001815181106119e8576119e76135fa565b5b602002602001015190508760026000828254611a049190613a9c565b9250508190555060405180606001604052808a73ffffffffffffffffffffffffffffffffffffffff16815260200188815260200182815250600460003073ffffffffffffffffffffffffffffffffffffffff1673ffffffffffffffffffffffffffffffffffffffff16815260200190815260200160002060008201518160000160006101000a81548173ffffffffffffffffffffffffffffffffffffffff021916908373ffffffffffffffffffffffffffffffffffffffff1602179055506020820151816001015560408201518160020155905050505050505050505050565b600160009054906101000a900473ffffffffffffffffffffffffffffffffffffffff1673ffffffffffffffffffffffffffffffffffffffff163373ffffffffffffffffffffffffffffffffffffffff1614611b74576040517f08c379a0000000000000000000000000000000000000000000000000000000008152600401611b6b90613598565b60405180910390fd5b6000600460003073ffffffffffffffffffffffffffffffffffffffff1673ffffffffffffffffffffffffffffffffffffffff1681526020019081526020016000206040518060600160405290816000820160009054906101000a900473ffffffffffffffffffffffffffffffffffffffff1673ffffffffffffffffffffffffffffffffffffffff1673ffffffffffffffffffffffffffffffffffffffff16815260200160018201548152602001600282015481525050905060008060009054906101000a900473ffffffffffffffffffffffffffffffffffffffff1673ffffffffffffffffffffffffffffffffffffffff1663c8e1b0626040518163ffffffff1660e01b8152600401602060405180830381865afa158015611c9a573d6000803e3d6000fd5b505050506040513d601f19601f82011682018060405250810190611cbe91906135cd565b90506000611cd58284600001518560200151612904565b600081518110611ce857611ce76135fa565b5b6020026020010151905060008060009054906101000a900473ffffffffffffffffffffffffffffffffffffffff1673ffffffffffffffffffffffffffffffffffffffff166349585ec26040518163ffffffff1660e01b8152600401602060405180830381865afa158015611d60573d6000803e3d6000fd5b505050506040513d601f19601f82011682018060405250810190611d8491906135cd565b905060008060009054906101000a900473ffffffffffffffffffffffffffffffffffffffff1673ffffffffffffffffffffffffffffffffffffffff166313561b556040518163ffffffff1660e01b8152600401602060405180830381865afa158015611df4573d6000803e3d6000fd5b505050506040513d601f19601f82011682018060405250810190611e1891906135cd565b90506000611e2b83838860200151612b94565b905080611e6d576040517f08c379a0000000000000000000000000000000000000000000000000000000008152600401611e6490613bf4565b60405180910390fd5b6000611ec1838860000151600360008b6000015173ffffffffffffffffffffffffffffffffffffffff1673ffffffffffffffffffffffffffffffffffffffff16815260200190815260200160002054612c1b565b905080611f03576040517f08c379a0000000000000000000000000000000000000000000000000000000008152600401611efa90613c60565b60405180910390fd5b8460026000828254611f159190613911565b92505081905550600060036000896000015173ffffffffffffffffffffffffffffffffffffffff1673ffffffffffffffffffffffffffffffffffffffff168152602001908152602001600020819055506040518060600160405280600073ffffffffffffffffffffffffffffffffffffffff168152602001600081526020016000815250600460003073ffffffffffffffffffffffffffffffffffffffff1673ffffffffffffffffffffffffffffffffffffffff16815260200190815260200160002060008201518160000160006101000a81548173ffffffffffffffffffffffffffffffffffffffff021916908373ffffffffffffffffffffffffffffffffffffffff160217905550602082015181600101556040820151816002015590505050505050505050565b600160009054906101000a900473ffffffffffffffffffffffffffffffffffffffff1673ffffffffffffffffffffffffffffffffffffffff163373ffffffffffffffffffffffffffffffffffffffff16146120cf576040517f08c379a00000000000000000000000000000000000000000000000000000000081526004016120c690613598565b60405180910390fd5b6000808361ffff16036121725760008054906101000a900473ffffffffffffffffffffffffffffffffffffffff1673ffffffffffffffffffffffffffffffffffffffff166313561b556040518163ffffffff1660e01b8152600401602060405180830381865afa158015612147573d6000803e3d6000fd5b505050506040513d601f19601f8201168201806040525081019061216b91906135cd565b9050612211565b60018361ffff16036122105760008054906101000a900473ffffffffffffffffffffffffffffffffffffffff1673ffffffffffffffffffffffffffffffffffffffff1663c8e1b0626040518163ffffffff1660e01b8152600401602060405180830381865afa1580156121e9573d6000803e3d6000fd5b505050506040513d601f19601f8201168201806040525081019061220d91906135cd565b90505b5b60008473ffffffffffffffffffffffffffffffffffffffff1662030d4083856040516024016122419291906130d8565b6040516020818303038152906040527f095ea7b3000000000000000000000000000000000000000000000000000000007bffffffffffffffffffffffffffffffffffffffffffffffffffffffff19166020820180517bffffffffffffffffffffffffffffffffffffffffffffffffffffffff83818316178352505050506040516122cb91906136a3565b60006040518083038160008787f1925050503d8060008114612309576040519150601f19603f3d011682016040523d82523d6000602084013e61230e565b606091505b5050905080612352576040517f08c379a000000000000000000000000000000000000000000000000000000000815260040161234990613855565b60405180910390fd5b5050505050565b60025481565b600160009054906101000a900473ffffffffffffffffffffffffffffffffffffffff1673ffffffffffffffffffffffffffffffffffffffff163373ffffffffffffffffffffffffffffffffffffffff16146123ef576040517f08c379a00000000000000000000000000000000000000000000000000000000081526004016123e690613598565b60405180910390fd5b50505050565b60001515600060149054906101000a900460ff1615151461244b576040517f08c379a000000000000000000000000000000000000000000000000000000000815260040161244290613ccc565b60405180910390fd5b600073ffffffffffffffffffffffffffffffffffffffff16600160009054906101000a900473ffffffffffffffffffffffffffffffffffffffff1673ffffffffffffffffffffffffffffffffffffffff16146124dc576040517f08c379a00000000000000000000000000000000000000000000000000000000081526004016124d390613d38565b60405180910390fd5b6000600281905550336000806101000a81548173ffffffffffffffffffffffffffffffffffffffff021916908373ffffffffffffffffffffffffffffffffffffffff16021790555080600160006101000a81548173ffffffffffffffffffffffffffffffffffffffff021916908373ffffffffffffffffffffffffffffffffffffffff16021790555050565b60008373ffffffffffffffffffffffffffffffffffffffff1663e8eda9df84843060006040518563ffffffff1660e01b81526004016125aa9493929190613d9d565b600060405180830381600087803b1580156125c457600080fd5b505af19250505080156125d5575060015b6125e257600090506125e7565b600190505b9392505050565b60008373ffffffffffffffffffffffffffffffffffffffff166366514c978484600260006040518563ffffffff1660e01b81526004016126319493929190613e1d565b600060405180830381600087803b15801561264b57600080fd5b505af192505050801561265c575060015b612669576000905061266e565b600190505b9392505050565b60606000612684858585612cb0565b600181518110612697576126966135fa565b5b602002602001015190506000600267ffffffffffffffff8111156126be576126bd61312b565b5b6040519080825280602002602001820160405280156126ec5781602001602082028036833780820191505090505b5090508573ffffffffffffffffffffffffffffffffffffffff1663ad5c46486040518163ffffffff1660e01b8152600401602060405180830381865afa15801561273a573d6000803e3d6000fd5b505050506040513d601f19601f8201168201806040525081019061275e91906135cd565b81600081518110612772576127716135fa565b5b602002602001019073ffffffffffffffffffffffffffffffffffffffff16908173ffffffffffffffffffffffffffffffffffffffff168152505084816001815181106127c1576127c06135fa565b5b602002602001019073ffffffffffffffffffffffffffffffffffffffff16908173ffffffffffffffffffffffffffffffffffffffff1681525050600060644261280a9190613911565b905060008773ffffffffffffffffffffffffffffffffffffffff16637ff36ab587868630876040518663ffffffff1660e01b815260040161284e9493929190613f75565b60006040518083038185885af115801561286c573d6000803e3d6000fd5b50505050506040513d6000823e3d601f19601f820116820180604052508101906128969190614084565b90506000816000815181106128ae576128ad6135fa565b5b6020026020010151036128f6576040517f08c379a00000000000000000000000000000000000000000000000000000000081526004016128ed90614119565b60405180910390fd5b809450505050509392505050565b60606000612913858585612e97565b600081518110612926576129256135fa565b5b602002602001015190506000600267ffffffffffffffff81111561294d5761294c61312b565b5b60405190808252806020026020018201604052801561297b5781602001602082028036833780820191505090505b5090508481600081518110612993576129926135fa565b5b602002602001019073ffffffffffffffffffffffffffffffffffffffff16908173ffffffffffffffffffffffffffffffffffffffff16815250508573ffffffffffffffffffffffffffffffffffffffff1663ad5c46486040518163ffffffff1660e01b8152600401602060405180830381865afa158015612a18573d6000803e3d6000fd5b505050506040513d601f19601f82011682018060405250810190612a3c91906135cd565b81600181518110612a5057612a4f6135fa565b5b602002602001019073ffffffffffffffffffffffffffffffffffffffff16908173ffffffffffffffffffffffffffffffffffffffff16815250506000606442612a999190613911565b905060008773ffffffffffffffffffffffffffffffffffffffff166318cbafe585888630876040518663ffffffff1660e01b8152600401612ade959493929190614139565b6000604051808303816000875af1158015612afd573d6000803e3d6000fd5b505050506040513d6000823e3d601f19601f82011682018060405250810190612b269190614084565b9050600081600081518110612b3e57612b3d6135fa565b5b602002602001015103612b86576040517f08c379a0000000000000000000000000000000000000000000000000000000008152600401612b7d906141df565b60405180910390fd5b809450505050509392505050565b60008373ffffffffffffffffffffffffffffffffffffffff166302c5fcf88385856002306040518663ffffffff1660e01b8152600401612bd794939291906141ff565b6000604051808303818588803b158015612bf057600080fd5b505af193505050508015612c02575060015b612c0f5760009050612c14565b600190505b9392505050565b60008373ffffffffffffffffffffffffffffffffffffffff166369328dec8484306040518463ffffffff1660e01b8152600401612c5a93929190614244565b6020604051808303816000875af1925050508015612c9657506040513d601f19601f82011682018060405250810190612c939190613a03565b60015b612ca35760009050612ca9565b50600190505b9392505050565b60606000600267ffffffffffffffff811115612ccf57612cce61312b565b5b604051908082528060200260200182016040528015612cfd5781602001602082028036833780820191505090505b5090508473ffffffffffffffffffffffffffffffffffffffff1663ad5c46486040518163ffffffff1660e01b8152600401602060405180830381865afa158015612d4b573d6000803e3d6000fd5b505050506040513d601f19601f82011682018060405250810190612d6f91906135cd565b81600081518110612d8357612d826135fa565b5b602002602001019073ffffffffffffffffffffffffffffffffffffffff16908173ffffffffffffffffffffffffffffffffffffffff16815250508381600181518110612dd257612dd16135fa565b5b602002602001019073ffffffffffffffffffffffffffffffffffffffff16908173ffffffffffffffffffffffffffffffffffffffff16815250508473ffffffffffffffffffffffffffffffffffffffff1663d06ca61f84836040518363ffffffff1660e01b8152600401612e4792919061427b565b600060405180830381865afa158015612e64573d6000803e3d6000fd5b505050506040513d6000823e3d601f19601f82011682018060405250810190612e8d9190614084565b9150509392505050565b60606000600267ffffffffffffffff811115612eb657612eb561312b565b5b604051908082528060200260200182016040528015612ee45781602001602082028036833780820191505090505b5090508381600081518110612efc57612efb6135fa565b5b602002602001019073ffffffffffffffffffffffffffffffffffffffff16908173ffffffffffffffffffffffffffffffffffffffff16815250508473ffffffffffffffffffffffffffffffffffffffff1663ad5c46486040518163ffffffff1660e01b8152600401602060405180830381865afa158015612f81573d6000803e3d6000fd5b505050506040513d601f19601f82011682018060405250810190612fa591906135cd565b81600181518110612fb957612fb86135fa565b5b602002602001019073ffffffffffffffffffffffffffffffffffffffff16908173ffffffffffffffffffffffffffffffffffffffff16815250508473ffffffffffffffffffffffffffffffffffffffff16631f00ca7484836040518363ffffffff1660e01b815260040161302e92919061427b565b600060405180830381865afa15801561304b573d6000803e3d6000fd5b505050506040513d6000823e3d601f19601f820116820180604052508101906130749190614084565b9150509392505050565b600073ffffffffffffffffffffffffffffffffffffffff82169050919050565b60006130a98261307e565b9050919050565b6130b98161309e565b82525050565b6000819050919050565b6130d2816130bf565b82525050565b60006040820190506130ed60008301856130b0565b6130fa60208301846130c9565b9392505050565b6000604051905090565b600080fd5b600080fd5b600080fd5b6000601f19601f8301169050919050565b7f4e487b7100000000000000000000000000000000000000000000000000000000600052604160045260246000fd5b6131638261311a565b810181811067ffffffffffffffff821117156131825761318161312b565b5b80604052505050565b6000613195613101565b90506131a1828261315a565b919050565b600067ffffffffffffffff8211156131c1576131c061312b565b5b602082029050602081019050919050565b600080fd5b6131e08161309e565b81146131eb57600080fd5b50565b6000813590506131fd816131d7565b92915050565b6000613216613211846131a6565b61318b565b90508083825260208201905060208402830185811115613239576132386131d2565b5b835b81811015613262578061324e88826131ee565b84526020840193505060208101905061323b565b5050509392505050565b600082601f83011261328157613280613115565b5b8135613291848260208601613203565b91505092915050565b6132a3816130bf565b81146132ae57600080fd5b50565b6000813590506132c08161329a565b92915050565b6000806000606084860312156132df576132de61310b565b5b600084013567ffffffffffffffff8111156132fd576132fc613110565b5b6133098682870161326c565b935050602061331a868287016132b1565b925050604061332b868287016132b1565b9150509250925092565b600061ffff82169050919050565b61334c81613335565b811461335757600080fd5b50565b60008135905061336981613343565b92915050565b6000806000606084860312156133885761338761310b565b5b6000613396868287016131ee565b93505060206133a78682870161335a565b92505060406133b8868287016132b1565b9150509250925092565b600080604083850312156133d9576133d861310b565b5b60006133e7858286016131ee565b92505060206133f8858286016132b1565b9150509250929050565b6000602082840312156134185761341761310b565b5b6000613426848285016131ee565b91505092915050565b600060608201905061344460008301866130b0565b61345160208301856130c9565b61345e60408301846130c9565b949350505050565b600060208201905061347b60008301846130c9565b92915050565b60008060006060848603121561349a5761349961310b565b5b60006134a8868287016131ee565b93505060206134b9868287016132b1565b92505060406134ca868287016132b1565b9150509250925092565b600080600080608085870312156134ee576134ed61310b565b5b60006134fc878288016131ee565b945050602061350d878288016132b1565b935050604061351e878288016131ee565b925050606061352f878288016132b1565b91505092959194509250565b600082825260208201905092915050565b7f4552524f523a204f6e6c79204f776e6572000000000000000000000000000000600082015250565b600061358260118361353b565b915061358d8261354c565b602082019050919050565b600060208201905081810360008301526135b181613575565b9050919050565b6000815190506135c7816131d7565b92915050565b6000602082840312156135e3576135e261310b565b5b60006135f1848285016135b8565b91505092915050565b7f4e487b7100000000000000000000000000000000000000000000000000000000600052603260045260246000fd5b600081519050919050565b600081905092915050565b60005b8381101561365d578082015181840152602081019050613642565b8381111561366c576000848401525b50505050565b600061367d82613629565b6136878185613634565b935061369781856020860161363f565b80840191505092915050565b60006136af8284613672565b915081905092915050565b7f556e69204661696c656400000000000000000000000000000000000000000000600082015250565b60006136f0600a8361353b565b91506136fb826136ba565b602082019050919050565b6000602082019050818103600083015261371f816136e3565b9050919050565b7f506f6f6c204661696c6564000000000000000000000000000000000000000000600082015250565b600061375c600b8361353b565b915061376782613726565b602082019050919050565b6000602082019050818103600083015261378b8161374f565b9050919050565b7f4e487b7100000000000000000000000000000000000000000000000000000000600052601160045260246000fd5b60006137cc826130bf565b91507fffffffffffffffffffffffffffffffffffffffffffffffffffffffffffffffff82036137fe576137fd613792565b5b600182019050919050565b7f4641494c45440000000000000000000000000000000000000000000000000000600082015250565b600061383f60068361353b565b915061384a82613809565b602082019050919050565b6000602082019050818103600083015261386e81613832565b9050919050565b600060608201905061388a60008301866130b0565b61389760208301856130b0565b6138a460408301846130c9565b949350505050565b60008115159050919050565b6138c1816138ac565b81146138cc57600080fd5b50565b6000815190506138de816138b8565b92915050565b6000602082840312156138fa576138f961310b565b5b6000613908848285016138cf565b91505092915050565b600061391c826130bf565b9150613927836130bf565b9250827fffffffffffffffffffffffffffffffffffffffffffffffffffffffffffffffff0382111561395c5761395b613792565b5b828201905092915050565b7f416c6c6f77204661696c65640000000000000000000000000000000000000000600082015250565b600061399d600c8361353b565b91506139a882613967565b602082019050919050565b600060208201905081810360008301526139cc81613990565b9050919050565b60006020820190506139e860008301846130b0565b92915050565b6000815190506139fd8161329a565b92915050565b600060208284031215613a1957613a1861310b565b5b6000613a27848285016139ee565b91505092915050565b7f4e6f7420656e6f75676820746f6b656e00000000000000000000000000000000600082015250565b6000613a6660108361353b565b9150613a7182613a30565b602082019050919050565b60006020820190508181036000830152613a9581613a59565b9050919050565b6000613aa7826130bf565b9150613ab2836130bf565b925082821015613ac557613ac4613792565b5b828203905092915050565b7f537570706c79204661696c656400000000000000000000000000000000000000600082015250565b6000613b06600d8361353b565b9150613b1182613ad0565b602082019050919050565b60006020820190508181036000830152613b3581613af9565b9050919050565b7f426f72726f77204661696c656400000000000000000000000000000000000000600082015250565b6000613b72600d8361353b565b9150613b7d82613b3c565b602082019050919050565b60006020820190508181036000830152613ba181613b65565b9050919050565b7f5265706179204661696c00000000000000000000000000000000000000000000600082015250565b6000613bde600a8361353b565b9150613be982613ba8565b602082019050919050565b60006020820190508181036000830152613c0d81613bd1565b9050919050565b7f5769746864726177204661696c00000000000000000000000000000000000000600082015250565b6000613c4a600d8361353b565b9150613c5582613c14565b602082019050919050565b60006020820190508181036000830152613c7981613c3d565b9050919050565b7f5468697320697320746865206261736520636f6e747261637400000000000000600082015250565b6000613cb660198361353b565b9150613cc182613c80565b602082019050919050565b60006020820190508181036000830152613ce581613ca9565b9050919050565b7f416c726561647920696e697469616c697a656400000000000000000000000000600082015250565b6000613d2260138361353b565b9150613d2d82613cec565b602082019050919050565b60006020820190508181036000830152613d5181613d15565b9050919050565b6000819050919050565b6000819050919050565b6000613d87613d82613d7d84613d58565b613d62565b613335565b9050919050565b613d9781613d6c565b82525050565b6000608082019050613db260008301876130b0565b613dbf60208301866130c9565b613dcc60408301856130b0565b613dd96060830184613d8e565b95945050505050565b6000819050919050565b6000613e07613e02613dfd84613de2565b613d62565b6130bf565b9050919050565b613e1781613dec565b82525050565b6000608082019050613e3260008301876130b0565b613e3f60208301866130c9565b613e4c6040830185613e0e565b613e596060830184613d8e565b95945050505050565b600081519050919050565b600082825260208201905092915050565b6000819050602082019050919050565b613e978161309e565b82525050565b6000613ea98383613e8e565b60208301905092915050565b6000602082019050919050565b6000613ecd82613e62565b613ed78185613e6d565b9350613ee283613e7e565b8060005b83811015613f13578151613efa8882613e9d565b9750613f0583613eb5565b925050600181019050613ee6565b5085935050505092915050565b6000613f3b613f36613f318461307e565b613d62565b61307e565b9050919050565b6000613f4d82613f20565b9050919050565b6000613f5f82613f42565b9050919050565b613f6f81613f54565b82525050565b6000608082019050613f8a60008301876130c9565b8181036020830152613f9c8186613ec2565b9050613fab6040830185613f66565b613fb860608301846130c9565b95945050505050565b600067ffffffffffffffff821115613fdc57613fdb61312b565b5b602082029050602081019050919050565b6000614000613ffb84613fc1565b61318b565b90508083825260208201905060208402830185811115614023576140226131d2565b5b835b8181101561404c578061403888826139ee565b845260208401935050602081019050614025565b5050509392505050565b600082601f83011261406b5761406a613115565b5b815161407b848260208601613fed565b91505092915050565b60006020828403121561409a5761409961310b565b5b600082015167ffffffffffffffff8111156140b8576140b7613110565b5b6140c484828501614056565b91505092915050565b7f455448203d3e20544f4b454e204641494c000000000000000000000000000000600082015250565b600061410360118361353b565b915061410e826140cd565b602082019050919050565b60006020820190508181036000830152614132816140f6565b9050919050565b600060a08201905061414e60008301886130c9565b61415b60208301876130c9565b818103604083015261416d8186613ec2565b905061417c60608301856130b0565b61418960808301846130c9565b9695505050505050565b7f544f4b454e203d3e20455448204641494c000000000000000000000000000000600082015250565b60006141c960118361353b565b91506141d482614193565b602082019050919050565b600060208201905081810360008301526141f8816141bc565b9050919050565b600060808201905061421460008301876130b0565b61422160208301866130c9565b61422e6040830185613e0e565b61423b60608301846130b0565b95945050505050565b600060608201905061425960008301866130b0565b61426660208301856130c9565b61427360408301846130b0565b949350505050565b600060408201905061429060008301856130c9565b81810360208301526142a28184613ec2565b9050939250505056fea2646970667358221220f74347c1bfcdca49571027c831e7e0e45a1aa34ea2d81f1e0a40adbbec5da6ca64736f6c634300080e0033",
  "immutableReferences": {},
  "source": "// SPDX-License-Identifier: MIT\r\n\r\n/*\r\n _______   __                      __              __       __\r\n/       \\ /  |                    /  |            /  |  _  /  |\r\n$$$$$$$  |$$ |  ______    _______ $$ |   __       $$ | / \\ $$ |  ______   __     __  ______\r\n$$ |__$$ |$$ | /      \\  /       |$$ |  /  |      $$ |/$  \\$$ | /      \\ /  \\   /  |/      \\\r\n$$    $$< $$ |/$$$$$$  |/$$$$$$$/ $$ |_/$$/       $$ /$$$  $$ | $$$$$$  |$$  \\ /$$//$$$$$$  |\r\n$$$$$$$  |$$ |$$ |  $$ |$$ |      $$   $$<        $$ $$/$$ $$ | /    $$ | $$  /$$/ $$    $$ |\r\n$$ |__$$ |$$ |$$ \\__$$ |$$ \\_____ $$$$$$  \\       $$$$/  $$$$ |/$$$$$$$ |  $$ $$/  $$$$$$$$/\r\n$$    $$/ $$ |$$    $$/ $$       |$$ | $$  |      $$$/    $$$ |$$    $$ |   $$$/   $$       |\r\n$$$$$$$/  $$/  $$$$$$/   $$$$$$$/ $$/   $$/       $$/      $$/  $$$$$$$/     $/     $$$$$$$/\r\n\r\n*/\r\n\r\npragma solidity >=0.7.0 <0.9.0;\r\n\r\nimport \"@openzeppelin/contracts/access/Ownable.sol\";\r\nimport \"@openzeppelin/contracts/token/ERC20/utils/SafeERC20.sol\";\r\n\r\ninterface Factory {\r\n    function getUni() external view returns (address);\r\n\r\n    function getAaveAllow() external view returns (address);\r\n\r\n    function getAaveEth() external view returns (address);\r\n\r\n    function getAavePool() external view returns (address);\r\n\r\n    function getCommissionFee() external view returns (address);\r\n}\r\n\r\ninterface UniswapV2Router {\r\n    function WETH() external pure returns (address);\r\n\r\n    function getAmountsOut(uint amountIn, address[] memory path) external view returns (uint[] memory amounts);\r\n\r\n    function getAmountsIn(uint amountOut, address[] memory path) external view returns (uint[] memory amounts);\r\n\r\n    // ETH to DAI\r\n    function swapExactETHForTokens(uint amountOutMin, address[] calldata path, address to, uint deadline)\r\n    external\r\n    payable\r\n    returns (uint[] memory amounts);\r\n\r\n    // DAI to ETH\r\n    function swapExactTokensForETH(uint amountIn, uint amountOutMin, address[] calldata path, address to, uint deadline)\r\n    external\r\n    returns (uint[] memory amounts);\r\n}\r\n\r\ninterface AaveETHRouter {\r\n    function depositETH(\r\n        address lendingPool,\r\n        address onBehalfOf,\r\n        uint16 referralCode\r\n    ) external payable;\r\n\r\n    function withdrawETH(\r\n        address lendingPool,\r\n        uint256 amount,\r\n        address onBehalfOf\r\n    ) external;\r\n\r\n    function repayETH(\r\n        address lendingPool,\r\n        uint256 amount,\r\n        uint256 rateMode,\r\n        address onBehalfOf\r\n    ) external payable;\r\n\r\n    function borrowETH(\r\n        address lendingPool,\r\n        uint256 amount,\r\n        uint256 interesRateMode,\r\n        uint16 referralCode\r\n    ) external;\r\n}\r\n\r\ninterface AavePoolRouter {\r\n    function deposit(\r\n        address asset,\r\n        uint256 amount,\r\n        address onBehalfOf,\r\n        uint16 referralCode\r\n    ) external;\r\n\r\n    function withdraw(\r\n        address asset,\r\n        uint256 amount,\r\n        address to\r\n    ) external returns (uint256);\r\n\r\n    function borrow(\r\n        address asset,\r\n        uint256 amount,\r\n        uint256 interestRateMode,\r\n        uint16 referralCode,\r\n        address onBehalfOf\r\n    ) external;\r\n\r\n    function repay(\r\n        address asset,\r\n        uint256 amount,\r\n        uint256 rateMode,\r\n        address onBehalfOf\r\n    ) external returns (uint256);\r\n}\r\n\r\ncontract SubWallet {\r\n    // Events\r\n    event Deposit(address, address, uint256);\r\n    event Withdraw(address, uint256);\r\n    event Receive(address, uint256);\r\n\r\n    // Convertor\r\n    using SafeERC20 for IERC20;\r\n\r\n    // Clone\r\n    // -------------------------------------------------------------------------\r\n    Factory private _factory;\r\n    bool private _isBase;\r\n\r\n    address private _owner;\r\n\r\n    modifier onlyOwner() {\r\n        require(msg.sender == _owner, \"ERROR: Only Owner\");\r\n        _;\r\n    }\r\n\r\n    constructor() { // base contract\r\n        _isBase = true;\r\n    }\r\n\r\n    // only use at first\r\n    function initialize(address _initOwner) external {\r\n        require(_isBase == false, \"This is the base contract\");\r\n        require(_owner == address(0), \"Already initialized\");\r\n//        totalProfit = 0;\r\n        balance = 0;\r\n        _factory = Factory(msg.sender);\r\n        _owner = _initOwner;\r\n    }\r\n\r\n    // Wallet Field\r\n    // -------------------------------------------------------------------------\r\n    // User Info\r\n//    int256 public totalProfit;\r\n    uint256 public balance;\r\n\r\n    mapping(address => uint256) collateralList; // DepositToken => Collateral Amount\r\n    mapping(address => Short) shortList; // ShortToken => Short Amount\r\n    Commission[] commissions; // CollateralToken => Commission\r\n\r\n    struct Short {\r\n        address token; //  \r\n        uint256 amount; //   ETH\r\n        uint256 price; //   Token /    \r\n    }\r\n\r\n    struct Commission {\r\n        address token;\r\n        uint256 fee;\r\n    }\r\n\r\n    // Token action\r\n    // -------------------------------------------------------------------------\r\n    function approveEth(address _token, uint16 _mode, uint _amount) external onlyOwner {\r\n        address to;\r\n        if (_mode == 0) {\r\n            to = _factory.getAavePool();\r\n        } else if (_mode == 1) {\r\n            to = _factory.getUni();\r\n        }\r\n        (bool success,) = address(_token).call{gas : 200000}(\r\n            abi.encodeWithSignature(\"approve(address,uint256)\", to, _amount)\r\n        );\r\n        require(success, \"FAILED\");\r\n    }\r\n\r\n    function approveTo(address _token, uint16 _mode, uint _amount) external onlyOwner {\r\n        address to;\r\n        if (_mode == 0) {\r\n            to = _factory.getAavePool();\r\n        } else if (_mode == 1) {\r\n            to = _factory.getUni();\r\n        }\r\n        (bool success,) = address(_token).call{gas : 200000}(\r\n            abi.encodeWithSignature(\"approve(address,uint256)\", to, _amount)\r\n        );\r\n        require(success, \"FAILED\");\r\n    }\r\n\r\n    function multiApproveTokens(address[] memory _tokens, uint256 _amount, uint256 _ethAmount) external onlyOwner {\r\n        address uniswap = _factory.getUni();\r\n        address aavePool = _factory.getAavePool();\r\n\r\n        for (uint i = 0; i < _tokens.length; i++) {\r\n            (bool sucUni,) = address(_tokens[i]).call{gas : 80000}(\r\n                abi.encodeWithSignature(\"approve(address,uint256)\", uniswap, _amount)\r\n            );\r\n            require(sucUni, \"Uni Failed\");\r\n            (bool sucPool,) = address(_tokens[i]).call{gas : 80000}(\r\n                abi.encodeWithSignature(\"approve(address,uint256)\", aavePool, _amount)\r\n            );\r\n            require(sucPool, \"Pool Failed\");\r\n        }\r\n    }\r\n\r\n    function multiApproveEth(address[] memory _tokens, uint256 _amount, uint256 _ethAmount) external onlyOwner {\r\n        address uniswap = _factory.getUni();\r\n        address aavePool = _factory.getAavePool();\r\n        address aaveAllow = _factory.getAaveAllow();\r\n        address aaveEth = _factory.getAaveEth();\r\n\r\n        for (uint i = 0; i < _tokens.length; i++) {\r\n            (bool sucUni,) = address(_tokens[i]).call{gas : 80000}(\r\n                abi.encodeWithSignature(\"approve(address,uint256)\", uniswap, _amount)\r\n            );\r\n            require(sucUni, \"Uni Failed\");\r\n            (bool sucPool,) = address(_tokens[i]).call{gas : 80000}(\r\n                abi.encodeWithSignature(\"approve(address,uint256)\", aavePool, _amount)\r\n            );\r\n            require(sucPool, \"Pool Failed\");\r\n        }\r\n\r\n        (bool sucAllow,) = aaveAllow.call{gas : 80000}(\r\n            abi.encodeWithSignature(\"approveDelegation(address,uint256)\", aaveEth, _ethAmount)\r\n        );\r\n        require(sucAllow, \"Allow Failed\");\r\n    }\r\n\r\n    function depositToken(address _token, uint256 _amount) external onlyOwner {\r\n        IERC20(_token).transferFrom(msg.sender, address(this), _amount);\r\n        balance += _amount;\r\n        emit Deposit(_token, msg.sender, _amount);\r\n    }\r\n\r\n    function withdrawToken(address _token, uint256 _amount) external onlyOwner {\r\n        require(IERC20(_token).balanceOf(address(this)) >= _amount, \"Not enough token\");\r\n        IERC20(_token).transfer(msg.sender, _amount);\r\n        balance -= _amount;\r\n        emit Withdraw(_token, _amount);\r\n    }\r\n\r\n    // Product action\r\n    // -------------------------------------------------------------------------\r\n    function shortStartETH(address _collateralToken, uint256 _collateralAmount, uint256 _ethAmount) external onlyOwner {\r\n        AavePoolRouter pool = AavePoolRouter(_factory.getAavePool());\r\n        bool sResult = _supply(pool, _collateralToken, _collateralAmount);\r\n        require(sResult, \"Supply Failed\");\r\n        collateralList[_collateralToken] = _collateralAmount;\r\n\r\n        AaveETHRouter gate = AaveETHRouter(_factory.getAaveEth());\r\n        bool bResult = _borrowEth(gate, pool, _ethAmount);\r\n        require(bResult, \"Borrow Failed\");\r\n\r\n        UniswapV2Router uni = UniswapV2Router(_factory.getUni());\r\n        uint changeAmount = _ethToToken(uni, _collateralToken, _ethAmount)[1];\r\n        balance -= _collateralAmount;\r\n        shortList[address(this)] = Short(_collateralToken, _ethAmount, changeAmount);\r\n    }\r\n\r\n    // token to token\r\n    function shortStart(address _collateralToken, uint256 _collateralAmount, address _shortToken, uint256 _shortAmount) external onlyOwner {\r\n    }\r\n\r\n    function _supply(AavePoolRouter router, address _token, uint256 _amount) internal returns (bool) {\r\n        try router.deposit(_token, _amount, address(this), 0) {\r\n            return true;\r\n        }\r\n        catch {\r\n            return false;\r\n        }\r\n    }\r\n\r\n    function _borrowEth(AaveETHRouter router, AavePoolRouter pool, uint256 _ethAmount) internal returns (bool) {\r\n        try router.borrowETH(address(pool), _ethAmount, 2, 0) {\r\n            return true;\r\n        }\r\n        catch {\r\n            return false;\r\n        }\r\n    }\r\n\r\n    function _borrow(address _token, uint256 _amount) internal returns (bool) {\r\n        return false;\r\n    }\r\n\r\n    // ETH => DAI\r\n    function _ethToToken(UniswapV2Router router, address _token, uint256 _ethAmount) internal returns (uint[] memory) {\r\n        uint tokenAmount = _getAmountToken(router, _token, _ethAmount)[1];\r\n        address[] memory path = new address[](2);\r\n        path[0] = router.WETH();\r\n        path[1] = _token;\r\n        uint deadline = block.timestamp + 100;\r\n\r\n        uint[] memory amounts = router.swapExactETHForTokens{value : uint(_ethAmount)}(tokenAmount, path, payable(address(this)), deadline);\r\n        require(amounts[0] != 0, \"ETH => TOKEN FAIL\");\r\n\r\n        return amounts;\r\n    }\r\n\r\n    function _getAmountToken(UniswapV2Router router, address _token, uint256 _ethAmount) internal view returns (uint[] memory) {\r\n        address[] memory path = new address[](2);\r\n        path[0] = router.WETH();\r\n        path[1] = _token;\r\n\r\n        return router.getAmountsOut(_ethAmount, path);\r\n    }\r\n\r\n    // -------------------------------------------------------------------------\r\n    function shortEndEth() external onlyOwner {\r\n        Short memory shorted = shortList[address(this)];\r\n\r\n        UniswapV2Router uni = UniswapV2Router(_factory.getUni());\r\n        uint256 changeAmount = _tokenToEth(uni, shorted.token, shorted.amount)[0];\r\n\r\n        AaveETHRouter gate = AaveETHRouter(_factory.getAaveEth());\r\n        AavePoolRouter pool = AavePoolRouter(_factory.getAavePool());\r\n        bool rResult = _repayEth(gate, pool, shorted.amount);\r\n        require(rResult, \"Repay Fail\");\r\n\r\n        bool wResult = _withdraw(pool, shorted.token, collateralList[shorted.token]);\r\n        require(wResult, \"Withdraw Fail\");\r\n\r\n        balance += changeAmount;\r\n        collateralList[shorted.token] = 0;\r\n        shortList[address(this)] = Short(address(0), 0, 0);\r\n    }\r\n\r\n    // DAI to Token / ETH\r\n    // DAI => ETH\r\n    function _tokenToEth(UniswapV2Router router,address _token, uint256 _ethAmount) internal returns (uint[] memory) {\r\n        uint tokenAmount = _getAmountEth(router, _token, _ethAmount)[0];\r\n\r\n        address[] memory path = new address[](2);\r\n        path[0] = _token;\r\n        path[1] = router.WETH();\r\n        uint deadline = block.timestamp + 100;\r\n\r\n        uint[] memory amounts = router.swapExactTokensForETH(tokenAmount, _ethAmount, path, address(this), deadline);\r\n        require(amounts[0] != 0, \"TOKEN => ETH FAIL\");\r\n\r\n        return amounts;\r\n    }\r\n\r\n    function _getAmountEth(UniswapV2Router router, address _token, uint256 _ethAmount) internal view returns (uint[] memory) {\r\n        address[] memory path = new address[](2);\r\n        path[0] = _token;\r\n        path[1] = router.WETH();\r\n\r\n        return router.getAmountsIn(_ethAmount, path);\r\n    }\r\n\r\n    function _repayEth(AaveETHRouter router, AavePoolRouter pool, uint256 _ethAmount) internal returns (bool) {\r\n        try router.repayETH{value : _ethAmount}(address(pool), _ethAmount, 2, address(this)) {\r\n            return true;\r\n        }\r\n        catch {\r\n            return false;\r\n        }\r\n    }\r\n\r\n    function _repay(uint256 amount) internal returns (bool) {\r\n        return false;\r\n    }\r\n\r\n    function _withdraw(AavePoolRouter pool, address _token, uint256 _amount) internal returns (bool) {\r\n        try pool.withdraw(_token, _amount, address(this)) {\r\n            return true;\r\n        }\r\n        catch {\r\n            return false;\r\n        }\r\n    }\r\n\r\n    // View\r\n    // -------------------------------------------------------------------------\r\n    function getCollateral(address _token) external view returns (uint) {\r\n        return collateralList[_token];\r\n    }\r\n\r\n    function getShort(address _token) external view returns (address, uint, uint) {\r\n        Short memory shorted = shortList[_token];\r\n        return (shorted.token, shorted.amount, shorted.price);\r\n    }\r\n\r\n    receive() external payable {\r\n        emit Receive(msg.sender, msg.value);\r\n    }\r\n}\r\n",
  "sourcePath": "C:\\Users\\Dean\\Desktop\\InteliJ\\sail_contract\\contracts\\SubWallet.sol",
  "compiler": {
    "name": "solc",
    "version": "0.8.14+commit.80d49f37.Emscripten.clang"
  },
  "schemaVersion": "3.4.7",
  "updatedAt": "2022-09-07T06:04:43.774Z",
  "devdoc": {
    "kind": "dev",
    "methods": {},
    "version": 1
  },
  "userdoc": {
    "kind": "user",
    "methods": {},
    "version": 1
  }
}