{
  "contractName": "SubWalletFactory",
  "abi": [
    {
      "inputs": [
        {
          "internalType": "address",
          "name": "_baseContract",
          "type": "address"
        },
        {
          "internalType": "address",
          "name": "_uni",
          "type": "address"
        },
        {
          "internalType": "address",
          "name": "_ethAllow",
          "type": "address"
        },
        {
          "internalType": "address",
          "name": "_aaveEth",
          "type": "address"
        },
        {
          "internalType": "address",
          "name": "_aavePool",
          "type": "address"
        },
        {
          "internalType": "address[]",
          "name": "_dWhite",
          "type": "address[]"
        },
        {
          "internalType": "address[]",
          "name": "_sWhite",
          "type": "address[]"
        },
        {
          "internalType": "uint128",
          "name": "_maxSupply",
          "type": "uint128"
        }
      ],
      "stateMutability": "nonpayable",
      "type": "constructor"
    },
    {
      "anonymous": false,
      "inputs": [
        {
          "indexed": false,
          "internalType": "address",
          "name": "_newClone",
          "type": "address"
        },
        {
          "indexed": false,
          "internalType": "address",
          "name": "_owner",
          "type": "address"
        }
      ],
      "name": "CreateClone",
      "type": "event"
    },
    {
      "inputs": [],
      "name": "createWallet",
      "outputs": [],
      "stateMutability": "nonpayable",
      "type": "function"
    },
    {
      "inputs": [
        {
          "internalType": "address",
          "name": "_newAdd",
          "type": "address"
        }
      ],
      "name": "setOwner",
      "outputs": [],
      "stateMutability": "nonpayable",
      "type": "function"
    },
    {
      "inputs": [
        {
          "internalType": "address",
          "name": "_newAdd",
          "type": "address"
        }
      ],
      "name": "setBase",
      "outputs": [],
      "stateMutability": "nonpayable",
      "type": "function"
    },
    {
      "inputs": [
        {
          "internalType": "address",
          "name": "_newAdd",
          "type": "address"
        }
      ],
      "name": "setUni",
      "outputs": [],
      "stateMutability": "nonpayable",
      "type": "function"
    },
    {
      "inputs": [
        {
          "internalType": "address",
          "name": "_newAdd",
          "type": "address"
        }
      ],
      "name": "setAaveEthAllow",
      "outputs": [],
      "stateMutability": "nonpayable",
      "type": "function"
    },
    {
      "inputs": [
        {
          "internalType": "address",
          "name": "_newAdd",
          "type": "address"
        }
      ],
      "name": "setAaveEth",
      "outputs": [],
      "stateMutability": "nonpayable",
      "type": "function"
    },
    {
      "inputs": [
        {
          "internalType": "address",
          "name": "_newAdd",
          "type": "address"
        }
      ],
      "name": "setAavePool",
      "outputs": [],
      "stateMutability": "nonpayable",
      "type": "function"
    },
    {
      "inputs": [
        {
          "internalType": "uint128",
          "name": "_max",
          "type": "uint128"
        }
      ],
      "name": "setMaxWallet",
      "outputs": [],
      "stateMutability": "nonpayable",
      "type": "function"
    },
    {
      "inputs": [
        {
          "internalType": "uint256",
          "name": "_fee",
          "type": "uint256"
        }
      ],
      "name": "setCommissionFee",
      "outputs": [],
      "stateMutability": "nonpayable",
      "type": "function"
    },
    {
      "inputs": [],
      "name": "totalCreated",
      "outputs": [
        {
          "internalType": "uint128",
          "name": "",
          "type": "uint128"
        }
      ],
      "stateMutability": "view",
      "type": "function",
      "constant": true
    },
    {
      "inputs": [],
      "name": "getMaxWallet",
      "outputs": [
        {
          "internalType": "uint128",
          "name": "",
          "type": "uint128"
        }
      ],
      "stateMutability": "view",
      "type": "function",
      "constant": true
    },
    {
      "inputs": [
        {
          "internalType": "address",
          "name": "_user",
          "type": "address"
        }
      ],
      "name": "getWallets",
      "outputs": [
        {
          "internalType": "address[]",
          "name": "",
          "type": "address[]"
        }
      ],
      "stateMutability": "view",
      "type": "function",
      "constant": true
    },
    {
      "inputs": [],
      "name": "getUni",
      "outputs": [
        {
          "internalType": "address",
          "name": "",
          "type": "address"
        }
      ],
      "stateMutability": "view",
      "type": "function",
      "constant": true
    },
    {
      "inputs": [],
      "name": "getAaveAllow",
      "outputs": [
        {
          "internalType": "address",
          "name": "",
          "type": "address"
        }
      ],
      "stateMutability": "view",
      "type": "function",
      "constant": true
    },
    {
      "inputs": [],
      "name": "getAaveEth",
      "outputs": [
        {
          "internalType": "address",
          "name": "",
          "type": "address"
        }
      ],
      "stateMutability": "view",
      "type": "function",
      "constant": true
    },
    {
      "inputs": [],
      "name": "getAavePool",
      "outputs": [
        {
          "internalType": "address",
          "name": "",
          "type": "address"
        }
      ],
      "stateMutability": "view",
      "type": "function",
      "constant": true
    },
    {
      "inputs": [],
      "name": "getCommissionFee",
      "outputs": [
        {
          "internalType": "uint256",
          "name": "",
          "type": "uint256"
        }
      ],
      "stateMutability": "view",
      "type": "function",
      "constant": true
    },
    {
      "inputs": [],
      "name": "owner",
      "outputs": [
        {
          "internalType": "address",
          "name": "",
          "type": "address"
        }
      ],
      "stateMutability": "view",
      "type": "function",
      "constant": true
    }
  ],
  "bytecode": "0x60806040523480156200001157600080fd5b506040516200194838038062001948833981810160405281019062000037919062000480565b336000806101000a81548173ffffffffffffffffffffffffffffffffffffffff021916908373ffffffffffffffffffffffffffffffffffffffff16021790555087600160006101000a81548173ffffffffffffffffffffffffffffffffffffffff021916908373ffffffffffffffffffffffffffffffffffffffff16021790555086600260006101000a81548173ffffffffffffffffffffffffffffffffffffffff021916908373ffffffffffffffffffffffffffffffffffffffff16021790555085600360006101000a81548173ffffffffffffffffffffffffffffffffffffffff021916908373ffffffffffffffffffffffffffffffffffffffff16021790555084600460006101000a81548173ffffffffffffffffffffffffffffffffffffffff021916908373ffffffffffffffffffffffffffffffffffffffff16021790555083600560006101000a81548173ffffffffffffffffffffffffffffffffffffffff021916908373ffffffffffffffffffffffffffffffffffffffff1602179055506000600760006101000a8154816fffffffffffffffffffffffffffffffff02191690836fffffffffffffffffffffffffffffffff16021790555080600760106101000a8154816fffffffffffffffffffffffffffffffff02191690836fffffffffffffffffffffffffffffffff1602179055506032600881905550505050505050505062000587565b6000604051905090565b600080fd5b600080fd5b600073ffffffffffffffffffffffffffffffffffffffff82169050919050565b6000620002868262000259565b9050919050565b620002988162000279565b8114620002a457600080fd5b50565b600081519050620002b8816200028d565b92915050565b600080fd5b6000601f19601f8301169050919050565b7f4e487b7100000000000000000000000000000000000000000000000000000000600052604160045260246000fd5b6200030e82620002c3565b810181811067ffffffffffffffff8211171562000330576200032f620002d4565b5b80604052505050565b60006200034562000245565b905062000353828262000303565b919050565b600067ffffffffffffffff821115620003765762000375620002d4565b5b602082029050602081019050919050565b600080fd5b6000620003a36200039d8462000358565b62000339565b90508083825260208201905060208402830185811115620003c957620003c862000387565b5b835b81811015620003f65780620003e18882620002a7565b845260208401935050602081019050620003cb565b5050509392505050565b600082601f830112620004185762000417620002be565b5b81516200042a8482602086016200038c565b91505092915050565b60006fffffffffffffffffffffffffffffffff82169050919050565b6200045a8162000433565b81146200046657600080fd5b50565b6000815190506200047a816200044f565b92915050565b600080600080600080600080610100898b031215620004a457620004a36200024f565b5b6000620004b48b828c01620002a7565b9850506020620004c78b828c01620002a7565b9750506040620004da8b828c01620002a7565b9650506060620004ed8b828c01620002a7565b9550506080620005008b828c01620002a7565b94505060a089015167ffffffffffffffff81111562000524576200052362000254565b5b620005328b828c0162000400565b93505060c089015167ffffffffffffffff81111562000556576200055562000254565b5b620005648b828c0162000400565b92505060e0620005778b828c0162000469565b9150509295985092959890939650565b6113b180620005976000396000f3fe608060405234801561001057600080fd5b50600436106101165760003560e01c8063844e0acd116100a25780639d7d496e116100715780639d7d496e14610293578063be17fe62146102b1578063c8e1b062146102cd578063e838ddff146102eb578063f63c13a41461030757610116565b8063844e0acd1461021f578063895860e51461023d5780638da5cb5b146102595780639a1f25b51461027757610116565b8063349f937c116100e9578063349f937c1461017d578063422c29a41461019957806349585ec2146101c95780636f3ca55d146101e75780637a6826001461020357610116565b80630fa604e41461011b57806311ebbf241461013957806313561b551461014357806313af403514610161575b600080fd5b610123610325565b6040516101309190610eed565b60405180910390f35b61014161034b565b005b61014b6105d3565b6040516101589190610f49565b60405180910390f35b61017b60048036038101906101769190610f95565b6105fd565b005b61019760048036038101906101929190610f95565b6106ce565b005b6101b360048036038101906101ae9190610f95565b6107a0565b6040516101c09190611080565b60405180910390f35b6101d161086d565b6040516101de9190610f49565b60405180910390f35b61020160048036038101906101fc9190610f95565b610897565b005b61021d600480360381019061021891906110ce565b610969565b005b610227610a33565b6040516102349190610eed565b60405180910390f35b61025760048036038101906102529190611131565b610a59565b005b610261610af1565b60405161026e9190610f49565b60405180910390f35b610291600480360381019061028c9190610f95565b610b1a565b005b61029b610bec565b6040516102a8919061116d565b60405180910390f35b6102cb60048036038101906102c69190610f95565b610bf6565b005b6102d5610cc8565b6040516102e29190610f49565b60405180910390f35b61030560048036038101906103009190610f95565b610cf2565b005b61030f610dc4565b60405161031c9190610f49565b60405180910390f35b6000600760109054906101000a90046fffffffffffffffffffffffffffffffff16905090565b600760109054906101000a90046fffffffffffffffffffffffffffffffff166fffffffffffffffffffffffffffffffff166001600760009054906101000a90046fffffffffffffffffffffffffffffffff166103a791906111b7565b6fffffffffffffffffffffffffffffffff1611156103fa576040517f08c379a00000000000000000000000000000000000000000000000000000000081526004016103f19061125a565b60405180910390fd5b6000610427600160009054906101000a900473ffffffffffffffffffffffffffffffffffffffff16610dee565b90506001600760009054906101000a90046fffffffffffffffffffffffffffffffff1661045491906111b7565b600760006101000a8154816fffffffffffffffffffffffffffffffff02191690836fffffffffffffffffffffffffffffffff160217905550600660003373ffffffffffffffffffffffffffffffffffffffff1673ffffffffffffffffffffffffffffffffffffffff168152602001908152602001600020819080600181540180825580915050600190039060005260206000200160009091909190916101000a81548173ffffffffffffffffffffffffffffffffffffffff021916908373ffffffffffffffffffffffffffffffffffffffff1602179055508073ffffffffffffffffffffffffffffffffffffffff1663c4d66de8336040518263ffffffff1660e01b81526004016105659190610f49565b600060405180830381600087803b15801561057f57600080fd5b505af1158015610593573d6000803e3d6000fd5b505050507fabf50ca9b6106472cb660a86793cc7b88404d7b924eb2554fb54f2200c54c75881336040516105c892919061127a565b60405180910390a150565b6000600560009054906101000a900473ffffffffffffffffffffffffffffffffffffffff16905090565b60008054906101000a900473ffffffffffffffffffffffffffffffffffffffff1673ffffffffffffffffffffffffffffffffffffffff163373ffffffffffffffffffffffffffffffffffffffff161461068b576040517f08c379a0000000000000000000000000000000000000000000000000000000008152600401610682906112ef565b60405180910390fd5b806000806101000a81548173ffffffffffffffffffffffffffffffffffffffff021916908373ffffffffffffffffffffffffffffffffffffffff16021790555050565b60008054906101000a900473ffffffffffffffffffffffffffffffffffffffff1673ffffffffffffffffffffffffffffffffffffffff163373ffffffffffffffffffffffffffffffffffffffff161461075c576040517f08c379a0000000000000000000000000000000000000000000000000000000008152600401610753906112ef565b60405180910390fd5b80600560006101000a81548173ffffffffffffffffffffffffffffffffffffffff021916908373ffffffffffffffffffffffffffffffffffffffff16021790555050565b6060600660008373ffffffffffffffffffffffffffffffffffffffff1673ffffffffffffffffffffffffffffffffffffffff16815260200190815260200160002080548060200260200160405190810160405280929190818152602001828054801561086157602002820191906000526020600020905b8160009054906101000a900473ffffffffffffffffffffffffffffffffffffffff1673ffffffffffffffffffffffffffffffffffffffff1681526020019060010190808311610817575b50505050509050919050565b6000600460009054906101000a900473ffffffffffffffffffffffffffffffffffffffff16905090565b60008054906101000a900473ffffffffffffffffffffffffffffffffffffffff1673ffffffffffffffffffffffffffffffffffffffff163373ffffffffffffffffffffffffffffffffffffffff1614610925576040517f08c379a000000000000000000000000000000000000000000000000000000000815260040161091c906112ef565b60405180910390fd5b80600260006101000a81548173ffffffffffffffffffffffffffffffffffffffff021916908373ffffffffffffffffffffffffffffffffffffffff16021790555050565b60008054906101000a900473ffffffffffffffffffffffffffffffffffffffff1673ffffffffffffffffffffffffffffffffffffffff163373ffffffffffffffffffffffffffffffffffffffff16146109f7576040517f08c379a00000000000000000000000000000000000000000000000000000000081526004016109ee906112ef565b60405180910390fd5b80600760106101000a8154816fffffffffffffffffffffffffffffffff02191690836fffffffffffffffffffffffffffffffff16021790555050565b6000600760009054906101000a90046fffffffffffffffffffffffffffffffff16905090565b60008054906101000a900473ffffffffffffffffffffffffffffffffffffffff1673ffffffffffffffffffffffffffffffffffffffff163373ffffffffffffffffffffffffffffffffffffffff1614610ae7576040517f08c379a0000000000000000000000000000000000000000000000000000000008152600401610ade906112ef565b60405180910390fd5b8060088190555050565b60008060009054906101000a900473ffffffffffffffffffffffffffffffffffffffff16905090565b60008054906101000a900473ffffffffffffffffffffffffffffffffffffffff1673ffffffffffffffffffffffffffffffffffffffff163373ffffffffffffffffffffffffffffffffffffffff1614610ba8576040517f08c379a0000000000000000000000000000000000000000000000000000000008152600401610b9f906112ef565b60405180910390fd5b80600360006101000a81548173ffffffffffffffffffffffffffffffffffffffff021916908373ffffffffffffffffffffffffffffffffffffffff16021790555050565b6000600854905090565b60008054906101000a900473ffffffffffffffffffffffffffffffffffffffff1673ffffffffffffffffffffffffffffffffffffffff163373ffffffffffffffffffffffffffffffffffffffff1614610c84576040517f08c379a0000000000000000000000000000000000000000000000000000000008152600401610c7b906112ef565b60405180910390fd5b80600160006101000a81548173ffffffffffffffffffffffffffffffffffffffff021916908373ffffffffffffffffffffffffffffffffffffffff16021790555050565b6000600260009054906101000a900473ffffffffffffffffffffffffffffffffffffffff16905090565b60008054906101000a900473ffffffffffffffffffffffffffffffffffffffff1673ffffffffffffffffffffffffffffffffffffffff163373ffffffffffffffffffffffffffffffffffffffff1614610d80576040517f08c379a0000000000000000000000000000000000000000000000000000000008152600401610d77906112ef565b60405180910390fd5b80600460006101000a81548173ffffffffffffffffffffffffffffffffffffffff021916908373ffffffffffffffffffffffffffffffffffffffff16021790555050565b6000600360009054906101000a900473ffffffffffffffffffffffffffffffffffffffff16905090565b60006040517f3d602d80600a3d3981f3363d3d373d3d3d363d7300000000000000000000000081528260601b60148201527f5af43d82803e903d91602b57fd5bf3000000000000000000000000000000000060288201526037816000f0915050600073ffffffffffffffffffffffffffffffffffffffff168173ffffffffffffffffffffffffffffffffffffffff1603610ebd576040517f08c379a0000000000000000000000000000000000000000000000000000000008152600401610eb49061135b565b60405180910390fd5b919050565b60006fffffffffffffffffffffffffffffffff82169050919050565b610ee781610ec2565b82525050565b6000602082019050610f026000830184610ede565b92915050565b600073ffffffffffffffffffffffffffffffffffffffff82169050919050565b6000610f3382610f08565b9050919050565b610f4381610f28565b82525050565b6000602082019050610f5e6000830184610f3a565b92915050565b600080fd5b610f7281610f28565b8114610f7d57600080fd5b50565b600081359050610f8f81610f69565b92915050565b600060208284031215610fab57610faa610f64565b5b6000610fb984828501610f80565b91505092915050565b600081519050919050565b600082825260208201905092915050565b6000819050602082019050919050565b610ff781610f28565b82525050565b60006110098383610fee565b60208301905092915050565b6000602082019050919050565b600061102d82610fc2565b6110378185610fcd565b935061104283610fde565b8060005b8381101561107357815161105a8882610ffd565b975061106583611015565b925050600181019050611046565b5085935050505092915050565b6000602082019050818103600083015261109a8184611022565b905092915050565b6110ab81610ec2565b81146110b657600080fd5b50565b6000813590506110c8816110a2565b92915050565b6000602082840312156110e4576110e3610f64565b5b60006110f2848285016110b9565b91505092915050565b6000819050919050565b61110e816110fb565b811461111957600080fd5b50565b60008135905061112b81611105565b92915050565b60006020828403121561114757611146610f64565b5b60006111558482850161111c565b91505092915050565b611167816110fb565b82525050565b6000602082019050611182600083018461115e565b92915050565b7f4e487b7100000000000000000000000000000000000000000000000000000000600052601160045260246000fd5b60006111c282610ec2565b91506111cd83610ec2565b9250826fffffffffffffffffffffffffffffffff038211156111f2576111f1611188565b5b828201905092915050565b600082825260208201905092915050565b7f4d61782057616c6c657400000000000000000000000000000000000000000000600082015250565b6000611244600a836111fd565b915061124f8261120e565b602082019050919050565b6000602082019050818103600083015261127381611237565b9050919050565b600060408201905061128f6000830185610f3a565b61129c6020830184610f3a565b9392505050565b7f6e6f74206f776e65720000000000000000000000000000000000000000000000600082015250565b60006112d96009836111fd565b91506112e4826112a3565b602082019050919050565b60006020820190508181036000830152611308816112cc565b9050919050565b7f436c6f6e653a20637265617465206661696c6564000000000000000000000000600082015250565b60006113456014836111fd565b91506113508261130f565b602082019050919050565b6000602082019050818103600083015261137481611338565b905091905056fea2646970667358221220257ae406a7a0a537b23cacd6db6672918eac157d9369140ec7ecb88bb29120c664736f6c634300080e0033",
  "immutableReferences": {},
  "source": "// SPDX-License-Identifier: MIT\r\n\r\n/*\r\n _______   __                      __              __       __\r\n/       \\ /  |                    /  |            /  |  _  /  |\r\n$$$$$$$  |$$ |  ______    _______ $$ |   __       $$ | / \\ $$ |  ______   __     __  ______\r\n$$ |__$$ |$$ | /      \\  /       |$$ |  /  |      $$ |/$  \\$$ | /      \\ /  \\   /  |/      \\\r\n$$    $$< $$ |/$$$$$$  |/$$$$$$$/ $$ |_/$$/       $$ /$$$  $$ | $$$$$$  |$$  \\ /$$//$$$$$$  |\r\n$$$$$$$  |$$ |$$ |  $$ |$$ |      $$   $$<        $$ $$/$$ $$ | /    $$ | $$  /$$/ $$    $$ |\r\n$$ |__$$ |$$ |$$ \\__$$ |$$ \\_____ $$$$$$  \\       $$$$/  $$$$ |/$$$$$$$ |  $$ $$/  $$$$$$$$/\r\n$$    $$/ $$ |$$    $$/ $$       |$$ | $$  |      $$$/    $$$ |$$    $$ |   $$$/   $$       |\r\n$$$$$$$/  $$/  $$$$$$/   $$$$$$$/ $$/   $$/       $$/      $$/  $$$$$$$/     $/     $$$$$$$/\r\n\r\n*/\r\n\r\npragma solidity ^0.8.0;\r\n\r\ninterface SubWalletRouter {\r\n    function initialize(address _initOwner) external;\r\n}\r\n\r\ncontract SubWalletFactory {\r\n    // Events ----------------------------------------------\r\n    event CreateClone(address _newClone, address _owner);\r\n\r\n    // Base ------------------------------------------------\r\n    address private _owner;\r\n    modifier onlyOwner {\r\n        require(msg.sender == _owner, \"not owner\");\r\n        _;\r\n    }\r\n    address private baseContract;\r\n\r\n    // External --------------------------------------------\r\n    address uniSwapRouter;\r\n    address aaveEthAllow;\r\n    address aaveGateWay;\r\n    address aaveLendingPool;\r\n\r\n    // Internal --------------------------------------------\r\n    mapping(address => address[]) private wallets;\r\n\r\n    uint128 private count;\r\n    uint128 private maxWallet;\r\n    uint256 commissionFee; // 50 = 0.5 %\r\n\r\n    constructor(address _baseContract, address _uni, address _ethAllow, address _aaveEth, address _aavePool, address[] memory _dWhite, address[] memory _sWhite, uint128 _maxSupply) {\r\n        // ------------------------------\r\n        _owner = msg.sender;\r\n        baseContract = _baseContract;\r\n        // ------------------------------\r\n        uniSwapRouter = _uni;\r\n        aaveEthAllow = _ethAllow;\r\n        aaveGateWay = _aaveEth;\r\n        aaveLendingPool = _aavePool;\r\n        // ------------------------------\r\n        count = 0;\r\n        maxWallet = _maxSupply;\r\n        commissionFee = 50;\r\n        // ------------------------------\r\n    }\r\n\r\n    // Func ------------------------------------------------\r\n    function createWallet() external {\r\n        require((count + 1) <= maxWallet, \"Max Wallet\");\r\n        address identicalChild = _clone(baseContract);\r\n        count = count + 1;\r\n        wallets[msg.sender].push(identicalChild);\r\n        SubWalletRouter(identicalChild).initialize(msg.sender);\r\n        emit CreateClone(identicalChild, msg.sender);\r\n    }\r\n\r\n    function _clone(address _baseContract) internal returns (address instance) {\r\n        assembly {\r\n            let ptr := mload(0x40)\r\n            mstore(ptr, 0x3d602d80600a3d3981f3363d3d373d3d3d363d73000000000000000000000000)\r\n            mstore(add(ptr, 0x14), shl(0x60, _baseContract))\r\n            mstore(add(ptr, 0x28), 0x5af43d82803e903d91602b57fd5bf30000000000000000000000000000000000)\r\n            instance := create(0, ptr, 0x37)\r\n        }\r\n        require(instance != address(0), \"Clone: create failed\");\r\n    }\r\n\r\n    // Owner -----------------------------------------------\r\n    function setOwner(address _newAdd) external onlyOwner {\r\n        _owner = _newAdd;\r\n    }\r\n\r\n    function setBase(address _newAdd) external onlyOwner {\r\n        baseContract = _newAdd;\r\n    }\r\n\r\n    function setUni(address _newAdd) external onlyOwner {\r\n        uniSwapRouter = _newAdd;\r\n    }\r\n\r\n    function setAaveEthAllow(address _newAdd) external onlyOwner {\r\n        aaveEthAllow = _newAdd;\r\n    }\r\n\r\n    function setAaveEth(address _newAdd) external onlyOwner {\r\n        aaveGateWay = _newAdd;\r\n    }\r\n\r\n    function setAavePool(address _newAdd) external onlyOwner {\r\n        aaveLendingPool = _newAdd;\r\n    }\r\n\r\n    function setMaxWallet(uint128 _max) external onlyOwner {\r\n        maxWallet = _max;\r\n    }\r\n\r\n    function setCommissionFee(uint256 _fee) external onlyOwner {\r\n        commissionFee = _fee;\r\n    }\r\n\r\n    // View ------------------------------------------------\r\n    function totalCreated() external view returns (uint128) {\r\n        return count;\r\n    }\r\n\r\n    function getMaxWallet() external view returns (uint128) {\r\n        return maxWallet;\r\n    }\r\n\r\n    function getWallets(address _user) external view returns (address[] memory) {\r\n        return wallets[_user];\r\n    }\r\n\r\n    function getUni() external view returns (address) {\r\n        return uniSwapRouter;\r\n    }\r\n\r\n    function getAaveAllow() external view returns (address) {\r\n        return aaveEthAllow;\r\n    }\r\n\r\n    function getAaveEth() external view returns (address) {\r\n        return aaveGateWay;\r\n    }\r\n\r\n    function getAavePool() external view returns (address) {\r\n        return aaveLendingPool;\r\n    }\r\n\r\n    function getCommissionFee() external view returns (uint) {\r\n        return commissionFee;\r\n    }\r\n\r\n    function owner() external view returns (address) {\r\n        return _owner;\r\n    }\r\n}",
  "sourcePath": "C:\\Users\\Dean\\Desktop\\InteliJ\\sail_contract\\contracts\\SubWalletFactory.sol",
  "compiler": {
    "name": "solc",
    "version": "0.8.14+commit.80d49f37.Emscripten.clang"
  },
  "schemaVersion": "3.4.7",
  "updatedAt": "2022-08-31T08:52:46.063Z",
  "networkType": "ethereum",
  "devdoc": {
    "kind": "dev",
    "methods": {},
    "version": 1
  },
  "userdoc": {
    "kind": "user",
    "methods": {},
    "version": 1
  }
}