{
  "contractName": "SmartContract",
  "abi": [
    {
      "inputs": [
        {
          "internalType": "address",
          "name": "initAaveLendingPoolAdd",
          "type": "address"
        },
        {
          "internalType": "address",
          "name": "initAaveGateWayAdd",
          "type": "address"
        },
        {
          "internalType": "contract UniswapV2Router02",
          "name": "initUniSwapRouter",
          "type": "address"
        },
        {
          "internalType": "address",
          "name": "initDepositTokenAdd",
          "type": "address"
        },
        {
          "internalType": "uint256",
          "name": "initCommissionFee",
          "type": "uint256"
        }
      ],
      "stateMutability": "nonpayable",
      "type": "constructor"
    },
    {
      "anonymous": false,
      "inputs": [
        {
          "indexed": true,
          "internalType": "address",
          "name": "previousOwner",
          "type": "address"
        },
        {
          "indexed": true,
          "internalType": "address",
          "name": "newOwner",
          "type": "address"
        }
      ],
      "name": "OwnershipTransferred",
      "type": "event"
    },
    {
      "inputs": [],
      "name": "owner",
      "outputs": [
        {
          "internalType": "address",
          "name": "",
          "type": "address"
        }
      ],
      "stateMutability": "view",
      "type": "function",
      "constant": true
    },
    {
      "inputs": [],
      "name": "renounceOwnership",
      "outputs": [],
      "stateMutability": "nonpayable",
      "type": "function"
    },
    {
      "inputs": [
        {
          "internalType": "address",
          "name": "newOwner",
          "type": "address"
        }
      ],
      "name": "transferOwnership",
      "outputs": [],
      "stateMutability": "nonpayable",
      "type": "function"
    },
    {
      "inputs": [
        {
          "internalType": "address",
          "name": "_subWallet",
          "type": "address"
        },
        {
          "internalType": "uint256",
          "name": "_amount",
          "type": "uint256"
        }
      ],
      "name": "depositToken",
      "outputs": [],
      "stateMutability": "nonpayable",
      "type": "function"
    },
    {
      "inputs": [
        {
          "internalType": "uint256",
          "name": "_amount",
          "type": "uint256"
        },
        {
          "internalType": "address",
          "name": "_to",
          "type": "address"
        }
      ],
      "name": "withdrawToken",
      "outputs": [],
      "stateMutability": "nonpayable",
      "type": "function"
    },
    {
      "inputs": [
        {
          "internalType": "uint256",
          "name": "_amount",
          "type": "uint256"
        }
      ],
      "name": "supply",
      "outputs": [
        {
          "internalType": "bytes",
          "name": "",
          "type": "bytes"
        }
      ],
      "stateMutability": "nonpayable",
      "type": "function"
    },
    {
      "inputs": [
        {
          "internalType": "uint256",
          "name": "_ethAmount",
          "type": "uint256"
        }
      ],
      "name": "borrowETH",
      "outputs": [
        {
          "internalType": "bytes",
          "name": "",
          "type": "bytes"
        }
      ],
      "stateMutability": "nonpayable",
      "type": "function"
    },
    {
      "inputs": [
        {
          "internalType": "address",
          "name": "_to",
          "type": "address"
        }
      ],
      "name": "shortEnd",
      "outputs": [],
      "stateMutability": "nonpayable",
      "type": "function"
    },
    {
      "inputs": [
        {
          "internalType": "uint256",
          "name": "ethAmount",
          "type": "uint256"
        }
      ],
      "name": "_getEstimatedDAIForETH",
      "outputs": [
        {
          "internalType": "uint256[]",
          "name": "",
          "type": "uint256[]"
        }
      ],
      "stateMutability": "view",
      "type": "function",
      "constant": true
    },
    {
      "inputs": [
        {
          "internalType": "address",
          "name": "subWallet",
          "type": "address"
        }
      ],
      "name": "getUserData",
      "outputs": [
        {
          "internalType": "string",
          "name": "",
          "type": "string"
        }
      ],
      "stateMutability": "view",
      "type": "function",
      "constant": true
    },
    {
      "inputs": [
        {
          "internalType": "address",
          "name": "_token",
          "type": "address"
        },
        {
          "internalType": "address",
          "name": "_to",
          "type": "address"
        },
        {
          "internalType": "uint256",
          "name": "_amount",
          "type": "uint256"
        }
      ],
      "name": "approveTo",
      "outputs": [],
      "stateMutability": "nonpayable",
      "type": "function"
    },
    {
      "inputs": [
        {
          "internalType": "uint256",
          "name": "fee",
          "type": "uint256"
        }
      ],
      "name": "setCommissionFee",
      "outputs": [],
      "stateMutability": "nonpayable",
      "type": "function"
    },
    {
      "inputs": [
        {
          "internalType": "address",
          "name": "newAdd",
          "type": "address"
        }
      ],
      "name": "setUniSwapAdd",
      "outputs": [],
      "stateMutability": "nonpayable",
      "type": "function"
    },
    {
      "inputs": [
        {
          "internalType": "address",
          "name": "newAdd",
          "type": "address"
        }
      ],
      "name": "setAaveLendingAdd",
      "outputs": [],
      "stateMutability": "nonpayable",
      "type": "function"
    },
    {
      "inputs": [
        {
          "internalType": "address",
          "name": "newAdd",
          "type": "address"
        }
      ],
      "name": "setAaveGateWayAdd",
      "outputs": [],
      "stateMutability": "nonpayable",
      "type": "function"
    },
    {
      "inputs": [
        {
          "internalType": "address",
          "name": "newAdd",
          "type": "address"
        }
      ],
      "name": "setDepositTokenAdd",
      "outputs": [],
      "stateMutability": "nonpayable",
      "type": "function"
    }
  ],
  "bytecode": "0x60806040523480156200001157600080fd5b5060405162001fe638038062001fe68339810160408190526200003491620000f2565b62000048620000426200009e565b620000a2565b600180546001600160a01b03199081166001600160a01b0397881617909155600280548216958716959095179094556004805485169286169290921790915560038054909316919093161790556006556200017e565b3390565b600080546001600160a01b038381166001600160a01b0319831681178455604051919092169283917f8be0079c531659141344cd1fd0a4f28419497f9722a3daafe3b4186f6b6457e09190a35050565b600080600080600060a086880312156200010a578081fd5b8551620001178162000165565b60208701519095506200012a8162000165565b60408701519094506200013d8162000165565b6060870151909350620001508162000165565b80925050608086015190509295509295909350565b6001600160a01b03811681146200017b57600080fd5b50565b611e58806200018e6000396000f3fe608060405234801561001057600080fd5b50600436106101005760003560e01c8063895860e511610097578063c8e6cb4911610066578063c8e6cb4914610205578063f2fde38b14610218578063f50627321461022b578063ffc9896b1461023e57610100565b8063895860e5146101aa5780638da5cb5b146101bd57806393a2878c146101d2578063be4b1772146101f257610100565b80635d0fb5f4116100d35780635d0fb5f41461016957806363b85ed91461017c578063715018a61461018f5780637b2af6251461019757610100565b8063338b5dea14610105578063354030231461011a57806348cc6a611461014357806354c62b7e14610156575b600080fd5b61011861011336600461171d565b610251565b005b61012d610128366004611827565b6103b1565b60405161013a9190611a78565b60405180910390f35b6101186101513660046116a5565b6104e1565b6101186101643660046116a5565b610542565b6101186101773660046116a5565b6105a3565b61011861018a3660046116a5565b610604565b610118610665565b61012d6101a5366004611827565b6106b0565b6101186101b8366004611827565b610837565b6101c561087b565b60405161013a9190611957565b6101e56101e0366004611827565b61088a565b60405161013a9190611a34565b61011861020036600461183f565b610a24565b6101186102133660046116a5565b610ad5565b6101186102263660046116a5565b610c61565b6101186102393660046116dd565b610cd2565b61012d61024c3660046116a5565b610db7565b600480546040516323b872dd60e01b81526001600160a01b03909116916323b872dd91610284913391309187910161196b565b602060405180830381600087803b15801561029e57600080fd5b505af11580156102b2573d6000803e3d6000fd5b505050506040513d601f19601f820116820180604052508101906102d69190611807565b506001600160a01b03828116600090815260056020526040902054161561032d576001600160a01b03821660009081526005602052604081206001018054839290610322908490611cea565b909155506103ad9050565b6040805160c08101825233815260208082018481526000838501818152606085018281526080860183815260a087018481526001600160a01b038b8116865260059788905298909420965187546001600160a01b031916981697909717865592516001860155516002850155905160038401559251600483015591519101555b5050565b60015460045460405160609260009283926001600160a01b039283169262061a80926103e8929116908890339087906024016119a8565b60408051601f198184030181529181526020820180516001600160e01b031663e8eda9df60e01b1790525161041d91906118dd565b60006040518083038160008787f1925050503d806000811461045b576040519150601f19603f3d011682016040523d82523d6000602084013e610460565b606091505b50915091508161048b5760405162461bcd60e51b815260040161048290611b26565b60405180910390fd5b33600090815260056020526040812060010180548692906104ad908490611d80565b909155505033600090815260056020526040812060020180548692906104d4908490611cea565b9091555090949350505050565b6104e9610e2c565b6001600160a01b03166104fa61087b565b6001600160a01b0316146105205760405162461bcd60e51b815260040161048290611ba4565b600280546001600160a01b0319166001600160a01b0392909216919091179055565b61054a610e2c565b6001600160a01b031661055b61087b565b6001600160a01b0316146105815760405162461bcd60e51b815260040161048290611ba4565b600180546001600160a01b0319166001600160a01b0392909216919091179055565b6105ab610e2c565b6001600160a01b03166105bc61087b565b6001600160a01b0316146105e25760405162461bcd60e51b815260040161048290611ba4565b600380546001600160a01b0319166001600160a01b0392909216919091179055565b61060c610e2c565b6001600160a01b031661061d61087b565b6001600160a01b0316146106435760405162461bcd60e51b815260040161048290611ba4565b600480546001600160a01b0319166001600160a01b0392909216919091179055565b61066d610e2c565b6001600160a01b031661067e61087b565b6001600160a01b0316146106a45760405162461bcd60e51b815260040161048290611ba4565b6106ae6000610e30565b565b6002546001805460405160609360009384936001600160a01b03928316936106e29390911691889186906024016119d4565b60408051601f198184030181529181526020820180516001600160e01b03166366514c9760e01b1790525161071791906118dd565b600060405180830381855af49150503d8060008114610752576040519150601f19603f3d011682016040523d82523d6000602084013e610757565b606091505b5091509150816107795760405162461bcd60e51b815260040161048290611b77565b336000908152600560205260408120600201805486929061079b908490611d80565b909155505033600090815260056020526040812060040180548692906107c2908490611cea565b90915550600090506107d385610e80565b3360009081526005602052604090206003018190556006549091506103e8906107fd908390611d22565b6108079190611d02565b3360009081526005602081905260408220018054909190610829908490611cea565b909155509195945050505050565b61083f610e2c565b6001600160a01b031661085061087b565b6001600160a01b0316146108765760405162461bcd60e51b815260040161048290611ba4565b600655565b6000546001600160a01b031690565b60408051600280825260608083018452926000929190602083019080368337505060045482519293506001600160a01b0316918391506000906108dd57634e487b7160e01b600052603260045260246000fd5b6001600160a01b03928316602091820292909201810191909152600354604080516315ab88c960e31b81529051919093169263ad5c4648926004808301939192829003018186803b15801561093157600080fd5b505afa158015610945573d6000803e3d6000fd5b505050506040513d601f19601f8201168201806040525081019061096991906116c1565b8160018151811061098a57634e487b7160e01b600052603260045260246000fd5b6001600160a01b0392831660209182029290920101526003546040516307c0329d60e21b8152911690631f00ca74906109c99086908590600401611c58565b60006040518083038186803b1580156109e157600080fd5b505afa1580156109f5573d6000803e3d6000fd5b505050506040513d6000823e601f3d908101601f19168201604052610a1d9190810190611748565b9392505050565b3360009081526005602052604081206001018054849290610a46908490611d80565b9091555050600480546040516323b872dd60e01b81526001600160a01b03909116916323b872dd91610a7e913091869188910161196b565b602060405180830381600087803b158015610a9857600080fd5b505af1158015610aac573d6000803e3d6000fd5b505050506040513d601f19601f82011682018060405250810190610ad09190611807565b505050565b336000908152600560205260408120600401548190610af39061112a565b91509150600080610b03836113d9565b9150915081610b245760405162461bcd60e51b815260040161048290611b53565b33600090815260056020526040812060048101829055600201548190610b49906114ba565b9150915081610b6a5760405162461bcd60e51b815260040161048290611c02565b33600090815260056020526040812060030154610b88908890611d41565b90506000811215610bc957610b9c81611dc7565b3360009081526005602052604081206002018054909190610bbe908490611d80565b90915550610bf19050565b3360009081526005602052604081206002018054839290610beb908490611cea565b90915550505b33600090815260056020819052604082206003810192909255810154600290910154610c1d9190611d80565b3360009081526005602052604081206001018054909190610c3f908490611cea565b9091555050336000908152600560208190526040822001555050505050505050565b610c69610e2c565b6001600160a01b0316610c7a61087b565b6001600160a01b031614610ca05760405162461bcd60e51b815260040161048290611ba4565b6001600160a01b038116610cc65760405162461bcd60e51b815260040161048290611a8b565b610ccf81610e30565b50565b610cda610e2c565b6001600160a01b0316610ceb61087b565b6001600160a01b031614610d115760405162461bcd60e51b815260040161048290611ba4565b600080846001600160a01b031662061a808585604051602401610d3592919061198f565b60408051601f198184030181529181526020820180516001600160e01b0316630436207b60e11b17905251610d6a91906118dd565b60006040518083038160008787f1925050503d8060008114610da8576040519150601f19603f3d011682016040523d82523d6000602084013e610dad565b606091505b5050505050505050565b604080516020808201835260008083526001600160a01b0380861682526005808452918590208054600182015460028301546003840154600485015494909601549851606099610e15988a98959097169693959294939091016118f9565b60408051808303601f190181529190529392505050565b3390565b600080546001600160a01b038381166001600160a01b0319831681178455604051919092169283917f8be0079c531659141344cd1fd0a4f28419497f9722a3daafe3b4186f6b6457e09190a35050565b600080610e8c83611565565b600081518110610eac57634e487b7160e01b600052603260045260246000fd5b602002602001015190506000600267ffffffffffffffff811115610ee057634e487b7160e01b600052604160045260246000fd5b604051908082528060200260200182016040528015610f09578160200160208202803683370190505b509050600360009054906101000a90046001600160a01b03166001600160a01b031663ad5c46486040518163ffffffff1660e01b815260040160206040518083038186803b158015610f5a57600080fd5b505afa158015610f6e573d6000803e3d6000fd5b505050506040513d601f19601f82011682018060405250810190610f9291906116c1565b81600081518110610fb357634e487b7160e01b600052603260045260246000fd5b6001600160a01b039283166020918202929092010152600454825191169082906001908110610ff257634e487b7160e01b600052603260045260246000fd5b6001600160a01b03909216602092830291909101909101526000611017426064611cea565b600354604051637ff36ab560e01b81529192506000916001600160a01b0390911690637ff36ab5908890611055908890889030908990600401611c79565b6000604051808303818588803b15801561106e57600080fd5b505af1158015611082573d6000803e3d6000fd5b50505050506040513d6000823e601f3d908101601f191682016040526110ab9190810190611748565b9050806000815181106110ce57634e487b7160e01b600052603260045260246000fd5b6020026020010151600014156110f65760405162461bcd60e51b815260040161048290611bd9565b8060008151811061111757634e487b7160e01b600052603260045260246000fd5b6020026020010151945050505050919050565b60008060006111388461088a565b60008151811061115857634e487b7160e01b600052603260045260246000fd5b602002602001015190506000600267ffffffffffffffff81111561118c57634e487b7160e01b600052604160045260246000fd5b6040519080825280602002602001820160405280156111b5578160200160208202803683370190505b509050600360009054906101000a90046001600160a01b03166001600160a01b031663ad5c46486040518163ffffffff1660e01b815260040160206040518083038186803b15801561120657600080fd5b505afa15801561121a573d6000803e3d6000fd5b505050506040513d601f19601f8201168201806040525081019061123e91906116c1565b8160008151811061125f57634e487b7160e01b600052603260045260246000fd5b6001600160a01b03928316602091820292909201015260045482519116908290600190811061129e57634e487b7160e01b600052603260045260246000fd5b6001600160a01b039092166020928302919091019091015260006112c3426064611cea565b6003546040516318cbafe560e01b81529192506000916001600160a01b03909116906318cbafe5906113019087908b90889030908990600401611cae565b600060405180830381600087803b15801561131b57600080fd5b505af115801561132f573d6000803e3d6000fd5b505050506040513d6000823e601f3d908101601f191682016040526113579190810190611748565b90508060008151811061137a57634e487b7160e01b600052603260045260246000fd5b6020026020010151600014156113a25760405162461bcd60e51b815260040161048290611afd565b83816000815181106113c457634e487b7160e01b600052603260045260246000fd5b60200260200101519550955050505050915091565b600254600454604051600092606092849283926001600160a01b039081169262061a8092899261141792849291169082906001903390602401611c29565b60408051601f198184030181529181526020820180516001600160e01b03166258bf9f60e31b1790525161144b91906118dd565b600060405180830381858888f193505050503d8060008114611489576040519150601f19603f3d011682016040523d82523d6000602084013e61148e565b606091505b5091509150816114b05760405162461bcd60e51b815260040161048290611ad1565b9092509050915091565b60018054600454604051600093606093859384936001600160a01b039283169362061a80936114f49316918a919087903390602401611a00565b60408051601f198184030181529181526020820180516001600160e01b031663f2cb277560e01b1790525161152991906118dd565b6000604051808303818686f4925050503d8060008114611489576040519150601f19603f3d011682016040523d82523d6000602084013e61148e565b604080516002808252606080830184529260009291906020830190803683375050600354604080516315ab88c960e31b815290519394506001600160a01b039091169263ad5c464892506004808301926020929190829003018186803b1580156115ce57600080fd5b505afa1580156115e2573d6000803e3d6000fd5b505050506040513d601f19601f8201168201806040525081019061160691906116c1565b8160008151811061162757634e487b7160e01b600052603260045260246000fd5b6001600160a01b03928316602091820292909201015260045482519116908290600190811061166657634e487b7160e01b600052603260045260246000fd5b6001600160a01b03928316602091820292909201015260035460405163d06ca61f60e01b815291169063d06ca61f906109c99086908590600401611c58565b6000602082840312156116b6578081fd5b8135610a1d81611e0d565b6000602082840312156116d2578081fd5b8151610a1d81611e0d565b6000806000606084860312156116f1578182fd5b83356116fc81611e0d565b9250602084013561170c81611e0d565b929592945050506040919091013590565b6000806040838503121561172f578182fd5b823561173a81611e0d565b946020939093013593505050565b6000602080838503121561175a578182fd5b825167ffffffffffffffff80821115611771578384fd5b818501915085601f830112611784578384fd5b81518181111561179657611796611df7565b838102604051601f19603f830116810181811085821117156117ba576117ba611df7565b604052828152858101935084860182860187018a10156117d8578788fd5b8795505b838610156117fa5780518552600195909501949386019386016117dc565b5098975050505050505050565b600060208284031215611818578081fd5b81518015158114610a1d578182fd5b600060208284031215611838578081fd5b5035919050565b60008060408385031215611851578182fd5b82359150602083013561186381611e0d565b809150509250929050565b6000815180845260208085019450808401835b838110156118a65781516001600160a01b031687529582019590820190600101611881565b509495945050505050565b600081518084526118c9816020860160208601611d97565b601f01601f19169290920160200192915050565b600082516118ef818460208701611d97565b9190910192915050565b6000885161190b818460208d01611d97565b605b60f81b92019182525060609690961b6bffffffffffffffffffffffff191660018701526015860194909452603585019290925260558401526075830152609582015260b501919050565b6001600160a01b0391909116815260200190565b6001600160a01b039384168152919092166020820152604081019190915260600190565b6001600160a01b03929092168252602082015260400190565b6001600160a01b03948516815260208101939093529216604082015260ff909116606082015260800190565b6001600160a01b03949094168452602084019290925260ff908116604084015216606082015260800190565b6001600160a01b039586168152602081019490945260ff928316604085015291166060830152909116608082015260a00190565b6020808252825182820181905260009190848201906040850190845b81811015611a6c57835183529284019291840191600101611a50565b50909695505050505050565b600060208252610a1d60208301846118b1565b60208082526026908201527f4f776e61626c653a206e6577206f776e657220697320746865207a65726f206160408201526564647265737360d01b606082015260800190565b6020808252601290820152714641494c20524550415920544f204141564560701b604082015260600190565b6020808252600f908201526e111052480f4f881155120811905253608a1b604082015260600190565b6020808252601390820152724641494c20535550504c5920544f204141564560681b604082015260600190565b6020808252600a908201526914995c185e4811985a5b60b21b604082015260600190565b6020808252601390820152724641494c20424f52524f5720544f204141564560681b604082015260600190565b6020808252818101527f4f776e61626c653a2063616c6c6572206973206e6f7420746865206f776e6572604082015260600190565b6020808252600f908201526e115512080f4f881110524811905253608a1b604082015260600190565b6020808252600d908201526c15da5d1a191c985dc811985a5b609a1b604082015260600190565b9485526001600160a01b039384166020860152604085019290925260ff16606084015216608082015260a00190565b600083825260406020830152611c71604083018461186e565b949350505050565b600085825260806020830152611c92608083018661186e565b6001600160a01b03949094166040830152506060015292915050565b600086825285602083015260a06040830152611ccd60a083018661186e565b6001600160a01b0394909416606083015250608001529392505050565b60008219821115611cfd57611cfd611de1565b500190565b600082611d1d57634e487b7160e01b81526012600452602481fd5b500490565b6000816000190483118215151615611d3c57611d3c611de1565b500290565b60008083128015600160ff1b850184121615611d5f57611d5f611de1565b6001600160ff1b0384018313811615611d7a57611d7a611de1565b50500390565b600082821015611d9257611d92611de1565b500390565b60005b83811015611db2578181015183820152602001611d9a565b83811115611dc1576000848401525b50505050565b6000600160ff1b821415611ddd57611ddd611de1565b0390565b634e487b7160e01b600052601160045260246000fd5b634e487b7160e01b600052604160045260246000fd5b6001600160a01b0381168114610ccf57600080fdfea2646970667358221220536626f1c60b9b5aff6932dd85db6134c036346fb4b021dc5764df1e6ed95d5964736f6c63430008010033",
  "immutableReferences": {},
  "source": "// SPDX-License-Identifier: MIT\r\n\r\npragma solidity ^0.8.1;\r\n\r\nimport \"@openzeppelin/contracts/access/Ownable.sol\";\r\nimport \"@openzeppelin/contracts/token/ERC20/utils/SafeERC20.sol\";\r\nimport \"@openzeppelin/contracts/utils/math/SafeMath.sol\";\r\n\r\ninterface UniswapV2Router02 {\r\n    function factory() external pure returns (address);\r\n\r\n    function getAmountsIn(uint amountOut, address[] memory path) external view returns (uint[] memory amounts);\r\n\r\n    function getAmountsOut(uint amountIn, address[] memory path) external view returns (uint[] memory amounts);\r\n\r\n    function WETH() external pure returns (address);\r\n\r\n    // ETH to DAI\r\n    function swapExactETHForTokens(uint amountOutMin, address[] calldata path, address to, uint deadline) external payable returns (uint[] memory amounts);\r\n\r\n    // DAI to ETH\r\n    function swapExactTokensForETH(uint amountIn, uint amountOutMin, address[] calldata path, address to, uint deadline) external returns (uint[] memory amounts);\r\n}\r\n\r\ncontract SmartContract is Ownable {\r\n    using SafeERC20 for IERC20;\r\n    using SafeMath for uint256;\r\n\r\n    address aaveLendingPoolAdd;\r\n    address aaveGateWayAdd;\r\n    UniswapV2Router02 uniSwapRouter;\r\n    address depositTokenAdd;\r\n    //    address[] shortTokenAddList;\r\n\r\n    mapping(address => User) userList;\r\n\r\n    uint256 commissionFee;\r\n\r\n    struct User {\r\n        address mainWallet;\r\n        uint256 amount; // DAI\r\n        uint256 collateralAmount; // DAI\r\n        uint256 shortDaiAmount; // DAI\r\n        uint256 shortAmount; // ETH\r\n        uint256 commission; // DAI\r\n    }\r\n\r\n    constructor(\r\n        address initAaveLendingPoolAdd,\r\n        address initAaveGateWayAdd,\r\n        UniswapV2Router02 initUniSwapRouter,\r\n    //        address[] initShortTokenAdd,\r\n        address initDepositTokenAdd,\r\n        uint initCommissionFee\r\n    ) {\r\n        aaveLendingPoolAdd = initAaveLendingPoolAdd;\r\n        aaveGateWayAdd = initAaveGateWayAdd;\r\n        depositTokenAdd = initDepositTokenAdd;\r\n        //        shortTokenAdd = initShortTokenAddList;\r\n        uniSwapRouter = initUniSwapRouter;\r\n        commissionFee = initCommissionFee;\r\n    }\r\n\r\n    // front\r\n    function depositToken(address _subWallet, uint256 _amount) external {\r\n        //        require(msg.sender != _subWallet, \"Not Valid address!!\");\r\n//        require(_amount >= 0, \"Amount is not negative\");\r\n//        require(IERC20(depositTokenAdd).balanceOf(msg.sender) > _amount, \"You don't have enough token\");\r\n\r\n        IERC20(depositTokenAdd).transferFrom(msg.sender, address(this), _amount);\r\n        if (userList[_subWallet].mainWallet != address(0)) {\r\n            userList[_subWallet].amount += _amount;\r\n        } else {\r\n            userList[_subWallet] = User(msg.sender, _amount, 0, 0, 0, 0);\r\n        }\r\n    }\r\n\r\n    // back\r\n    function withdrawToken(uint256 _amount, address _to) external {\r\n//        require(userList[msg.sender].mainWallet != address(0), \"User Not Exist\");\r\n//        require(_amount >= 0, \"Amount is not negative\");\r\n//        require(userList[msg.sender].amount < _amount, \"You don't have enough token in this contract\");\r\n\r\n        userList[msg.sender].amount -= _amount;\r\n        IERC20(depositTokenAdd).transferFrom(address(this), _to, _amount);\r\n    }\r\n\r\n    // back\r\n    //    function shortStart(IERC20 _shortToken, uint256 _collateralAmount, uint256 _borrowAmount) external {\r\n    //        require(userList[msg.sender].shortAmount == 0, \"Please End The Short\");\r\n    //        require(userList[msg.sender].mainWallet != 0, \"Not Valid User\");\r\n    //        require(_collateralAmount <= userList[msg.sender].amount, 'balance is low');\r\n    //\r\n    //        var (sResult, sData) = _supply(_collateralAmount);\r\n    //        require(sResult, \"Supply Fail\");\r\n    //        userList[msg.sender].amount -= _collateralAmount;\r\n    //        userList[msg.sender].collateralAmount += _collateralAmount;\r\n    //\r\n    ////        var (bResult, bData) = _borrow(_shortToken, _borrowAmount);\r\n    ////        require(bResult, \"Borrow Fail\");\r\n    ////        userList[msg.sender].shortAmount += _borrowAmount;\r\n    ////        userList[msg.sender].commission += _borrowAmount * commissionFee;\r\n    ////\r\n    ////        _EthToDai(_borrowAmount);\r\n    //    }\r\n\r\n    function supply(uint256 _amount) external returns (bytes memory) {\r\n        //        require(userList[msg.sender].shortAmount == 0, \"Please End The Short\");\r\n        //        require(userList[msg.sender].mainWallet != 0, \"Not Valid User\");\r\n//        require(_amount <= userList[msg.sender].amount, 'balance is low');\r\n\r\n        (bool success, bytes memory data) = aaveLendingPoolAdd.call{gas : 400000}(\r\n            abi.encodeWithSignature(\r\n                \"deposit(address,uint256,address,uint16)\", depositTokenAdd, _amount, msg.sender, 0\r\n            )\r\n        );\r\n        require(success, 'FAIL SUPPLY TO AAVE');\r\n\r\n        userList[msg.sender].amount -= _amount;\r\n        userList[msg.sender].collateralAmount += _amount;\r\n\r\n        return data;\r\n    }\r\n\r\n    function borrowETH(uint256 _ethAmount) external returns (bytes memory) {\r\n        (bool success, bytes memory data) = aaveGateWayAdd.delegatecall(\r\n            abi.encodeWithSignature(\r\n                \"borrowETH(address,uint256,uint256,uint16)\", aaveLendingPoolAdd, _ethAmount, 1, 0\r\n            )\r\n        );\r\n        require(success, 'FAIL BORROW TO AAVE');\r\n\r\n        userList[msg.sender].collateralAmount -= _ethAmount;\r\n        userList[msg.sender].shortAmount += _ethAmount;\r\n\r\n        uint daiAmount = _EthToDai(_ethAmount);\r\n\r\n        userList[msg.sender].shortDaiAmount = daiAmount;\r\n        userList[msg.sender].commission += commissionFee * daiAmount / 1000;\r\n\r\n        return data;\r\n    }\r\n\r\n    // Token to DAI / ETH\r\n    // ETH => DAI\r\n    function _EthToDai(uint256 _ethAmount) internal returns (uint) {\r\n        uint daiAmount = _getAmountDai(_ethAmount)[0];\r\n        address[] memory path = new address[](2);\r\n        path[0] = uniSwapRouter.WETH();\r\n        path[1] = depositTokenAdd;\r\n        uint deadline = block.timestamp + 100;\r\n\r\n        uint[] memory amounts = uniSwapRouter.swapExactETHForTokens{value : uint(_ethAmount)}(daiAmount, path, address(this), deadline);\r\n        require(amounts[0] != 0, \"ETH => DAI FAIL\");\r\n\r\n        return amounts[0];\r\n    }\r\n\r\n    function _getAmountDai(uint256 ethAmount) internal view returns (uint[] memory) {\r\n        address[] memory path = new address[](2);\r\n        path[0] = uniSwapRouter.WETH();\r\n        path[1] = depositTokenAdd;\r\n\r\n        return uniSwapRouter.getAmountsOut(ethAmount, path);\r\n    }\r\n\r\n    // back\r\n    function shortEnd(address _to) external {\r\n//        require(userList[msg.sender].mainWallet != address(0), \"Not Valid User\");\r\n\r\n        (uint daiAmount, uint ethAmount) = _DaiToETH(userList[msg.sender].shortAmount);\r\n\r\n        (bool rResult, bytes memory rData) = _repay(ethAmount);\r\n        require(rResult, \"Repay Fail\");\r\n\r\n        userList[msg.sender].shortAmount = 0;\r\n\r\n        (bool wResult, bytes memory wData) = _withdraw(userList[msg.sender].collateralAmount);\r\n        require(wResult, \"Withdraw Fail\");\r\n        int calcul = int(userList[msg.sender].shortDaiAmount) - int(daiAmount);\r\n        if(calcul < 0) {\r\n            userList[msg.sender].collateralAmount -= uint256(-calcul);\r\n        } else {\r\n            userList[msg.sender].collateralAmount += uint256(calcul);\r\n        }\r\n        userList[msg.sender].shortDaiAmount = 0;\r\n        userList[msg.sender].amount += userList[msg.sender].collateralAmount - userList[msg.sender].commission;\r\n        userList[msg.sender].commission = 0;\r\n    }\r\n\r\n    function _repay(uint256 amount) internal returns (bool, bytes memory) {\r\n        (bool success, bytes memory data) = aaveGateWayAdd.call{value : amount, gas : 400000}(\r\n            abi.encodeWithSignature(\r\n                \"repayETH(address,uint256,uint256,address)\", amount, depositTokenAdd, amount, 1, msg.sender\r\n            )\r\n        );\r\n        require(success, 'FAIL REPAY TO AAVE');\r\n\r\n        return (success, data);\r\n    }\r\n\r\n    function _withdraw(uint256 amount) internal returns (bool, bytes memory) {\r\n        (bool success, bytes memory data) = aaveLendingPoolAdd.delegatecall{gas : 400000}(\r\n            abi.encodeWithSignature(\r\n                \"withdraw(address,uint256,uint256,uint16,address)\", depositTokenAdd, amount, 1, 0, msg.sender\r\n            )\r\n        );\r\n        require(success, 'FAIL REPAY TO AAVE');\r\n\r\n        return (success, data);\r\n    }\r\n\r\n    // DAI to Token / ETH\r\n    // DAI => ETH\r\n    function _DaiToETH(uint256 _ethAmount) internal returns (uint, uint) {\r\n        uint daiAmount = _getEstimatedDAIForETH(_ethAmount)[0];\r\n        address[] memory path = new address[](2);\r\n        path[0] = uniSwapRouter.WETH();\r\n        path[1] = depositTokenAdd;\r\n        uint deadline = block.timestamp + 100;\r\n\r\n        uint[] memory amounts = uniSwapRouter.swapExactTokensForETH(daiAmount, _ethAmount, path, address(this), deadline);\r\n        require(amounts[0] != 0, \"DAI => ETH FAIL\");\r\n\r\n        return (daiAmount, amounts[0]);\r\n    }\r\n\r\n    function _getEstimatedDAIForETH(uint ethAmount) public view returns (uint[] memory) {\r\n        address[] memory path = new address[](2);\r\n        path[0] = depositTokenAdd;\r\n        path[1] = uniSwapRouter.WETH();\r\n\r\n        return uniSwapRouter.getAmountsIn(ethAmount, path);\r\n    }\r\n\r\n    // View\r\n    function getUserData(address subWallet) external view returns (string memory) {\r\n        string memory output = \"\";\r\n        output = string(\r\n            abi.encodePacked(output, \"[\",\r\n            userList[subWallet].mainWallet,\r\n            userList[subWallet].amount,\r\n            userList[subWallet].collateralAmount,\r\n            userList[subWallet].shortDaiAmount,\r\n            userList[subWallet].shortAmount,\r\n            userList[subWallet].commission));\r\n\r\n        return output;\r\n    }\r\n\r\n    // Owner Functions\r\n    function approveTo(address _token, address _to, uint _amount) external onlyOwner {\r\n        (bool success, bytes memory data) = _token.call{gas : 400000}(\r\n            abi.encodeWithSignature(\r\n                \"approve(address,uint)\", _to, _amount\r\n            )\r\n        );\r\n    }\r\n\r\n    //    function addShortToken(address _tokenAddress) external onlyOwner {\r\n    //        shortTokenAddList[_tokenAddress] = 0;\r\n    //    }\r\n\r\n    function setCommissionFee(uint256 fee) external onlyOwner {\r\n        commissionFee = fee;\r\n    }\r\n\r\n    function setUniSwapAdd(address newAdd) external onlyOwner {\r\n        uniSwapRouter = UniswapV2Router02(newAdd);\r\n    }\r\n\r\n    function setAaveLendingAdd(address newAdd) external onlyOwner {\r\n        aaveLendingPoolAdd = newAdd;\r\n    }\r\n\r\n    function setAaveGateWayAdd(address newAdd) external onlyOwner {\r\n        aaveGateWayAdd = newAdd;\r\n    }\r\n\r\n    function setDepositTokenAdd(address newAdd) external onlyOwner {\r\n        depositTokenAdd = newAdd;\r\n    }\r\n    //\r\n    //    function approveToAave(uint256 amount) external onlyOwner {\r\n    //        IERC20(depositTokenAdd).approve(aaveLendingPoolAdd, amount);\r\n    //    }\r\n}\r\n",
  "sourcePath": "C:\\Users\\Dean\\Desktop\\InteliJ\\sail_frontend\\contracts\\SmartContract.sol",
  "compiler": {
    "name": "solc",
    "version": "0.8.1+commit.df193b15.Emscripten.clang"
  },
  "schemaVersion": "3.4.7",
  "updatedAt": "2022-07-01T08:47:39.046Z",
  "networkType": "ethereum",
  "devdoc": {
    "kind": "dev",
    "methods": {
      "owner()": {
        "details": "Returns the address of the current owner."
      },
      "renounceOwnership()": {
        "details": "Leaves the contract without owner. It will not be possible to call `onlyOwner` functions anymore. Can only be called by the current owner. NOTE: Renouncing ownership will leave the contract without an owner, thereby removing any functionality that is only available to the owner."
      },
      "transferOwnership(address)": {
        "details": "Transfers ownership of the contract to a new account (`newOwner`). Can only be called by the current owner."
      }
    },
    "version": 1
  },
  "userdoc": {
    "kind": "user",
    "methods": {},
    "version": 1
  }
}